:020000040000fa
:080000000002040000000000f2
:020000040000fa
:04000800fa020000f8
:020000040000fa
:04000c003c030000b1
:020000040000fa
:040010009c0300004d
:020000040000fa
:040014001a030000cb
:020000040000fa
:040018005c03000085
:020000040000fa
:04001c007c03000061
:020000040000fa
:04002000bc0300001d
:020000040000fa
:04002400e8030000ed
:020000040000fa
:04002800e8030000e9
:020000040000fa
:04002c00e8030000e5
:020000040000fa
:04003000e8030000e1
:020000040000fa
:04003400e8030000dd
:020000040000fa
:04003800e8030000d9
:020000040000fa
:04003c00e8030000d5
:020000040000fa
:04004000e8030000d1
:020000040000fa
:04004400e8030000cd
:020000040000fa
:04004800e8030000c9
:020000040000fa
:04004c00e8030000c5
:020000040000fa
:04005000e8030000c1
:020000040000fa
:04005400e8030000bd
:020000040000fa
:04005800e8030000b9
:020000040000fa
:04005c00e8030000b5
:020000040000fa
:04006000e8030000b1
:020000040000fa
:04006400e8030000ad
:020000040000fa
:04006800e8030000a9
:020000040000fa
:04006c00e8030000a5
:020000040000fa
:04007000e8030000a1
:020000040000fa
:04007400e80300009d
:020000040000fa
:04007800e803000099
:020000040000fa
:04007c00e803000095
:020000040000fa
:04008000e803000091
:020000040000fa
:04008400e80300008d
:020000040000fa
:04008800e803000089
:020000040000fa
:04008c00e803000085
:020000040000fa
:04009000e803000081
:020000040000fa
:04009400e80300007d
:020000040000fa
:04009800e803000079
:020000040000fa
:04009c00e803000075
:020000040000fa
:0400a000e803000071
:020000040000fa
:0400a400e80300006d
:020000040000fa
:0400a800e803000069
:020000040000fa
:0400ac00e803000065
:020000040000fa
:0400b000e803000061
:020000040000fa
:0400b400e80300005d
:020000040000fa
:0400b800e803000059
:020000040000fa
:0400bc00e803000055
:020000040000fa
:0400c000e803000051
:020000040000fa
:0400c400e80300004d
:020000040000fa
:0400c800e803000049
:020000040000fa
:0400cc00e803000045
:020000040000fa
:0400d000e803000041
:020000040000fa
:0400d400e80300003d
:020000040000fa
:0400d800e803000039
:020000040000fa
:0400dc00e803000035
:020000040000fa
:0400e000e803000031
:020000040000fa
:0400e400e80300002d
:020000040000fa
:0400e800e803000029
:020000040000fa
:0400ec00e803000025
:020000040000fa
:0400f000e803000021
:020000040000fa
:0400f400e80300001d
:020000040000fa
:0400f800e803000019
:020000040000fa
:0400fc00e803000015
:020000040000fa
:04010000e803000010
:020000040000fa
:04010400e80300000c
:020000040000fa
:04010800e803000008
:020000040000fa
:04010c00e803000004
:020000040000fa
:04011000e803000000
:020000040000fa
:04011400e8030000fc
:020000040000fa
:04011800e8030000f8
:020000040000fa
:04011c00e8030000f4
:020000040000fa
:04012000e8030000f0
:020000040000fa
:04012400e8030000ec
:020000040000fa
:04012800e8030000e8
:020000040000fa
:04012c00e8030000e4
:020000040000fa
:04013000e8030000e0
:020000040000fa
:04013400e8030000dc
:020000040000fa
:04013800e8030000d8
:020000040000fa
:04013c00e8030000d4
:020000040000fa
:04014000e8030000d0
:020000040000fa
:04014400e8030000cc
:020000040000fa
:04014800e8030000c8
:020000040000fa
:04014c00e8030000c4
:020000040000fa
:04015000e8030000c0
:020000040000fa
:04015400e8030000bc
:020000040000fa
:04015800e8030000b8
:020000040000fa
:04015c00e8030000b4
:020000040000fa
:04016000e8030000b0
:020000040000fa
:04016400e8030000ac
:020000040000fa
:04016800e8030000a8
:020000040000fa
:04016c00e8030000a4
:020000040000fa
:04017000e8030000a0
:020000040000fa
:04017400e80300009c
:020000040000fa
:04017800e803000098
:020000040000fa
:04017c00e803000094
:020000040000fa
:04018000e803000090
:020000040000fa
:04018400e80300008c
:020000040000fa
:04018800e803000088
:020000040000fa
:04018c00e803000084
:020000040000fa
:04019000e803000080
:020000040000fa
:04019400e80300007c
:020000040000fa
:04019800e803000078
:020000040000fa
:04019c00e803000074
:020000040000fa
:0401a000e803000070
:020000040000fa
:0401a400e80300006c
:020000040000fa
:0401a800e803000068
:020000040000fa
:0401ac00e803000064
:020000040000fa
:0401b000e803000060
:020000040000fa
:0401b400e80300005c
:020000040000fa
:0401b800e803000058
:020000040000fa
:0401bc00e803000054
:020000040000fa
:0401c000e803000050
:020000040000fa
:0401c400e80300004c
:020000040000fa
:0401c800e803000048
:020000040000fa
:0401cc00e803000044
:020000040000fa
:0401d000e803000040
:020000040000fa
:0401d400e80300003c
:020000040000fa
:0401d800e803000038
:020000040000fa
:0401dc00e803000034
:020000040000fa
:0401e000e803000030
:020000040000fa
:0401e400e80300002c
:020000040000fa
:0401e800e803000028
:020000040000fa
:0401ec00e803000024
:020000040000fa
:0401f000e803000020
:020000040000fa
:0401f400e80300001c
:020000040000fa
:0401f800e803000018
:020000040000fa
:0401fc00e803000014
:020000040000fa
:04020000e80300000f
:020000040000fa
:04020400e80300000b
:020000040000fa
:04020800e803000007
:020000040000fa
:04020c00e803000003
:020000040000fa
:04021000e8030000ff
:020000040000fa
:04021400e8030000fb
:020000040000fa
:04021800e8030000f7
:020000040000fa
:04021c00e8030000f3
:020000040000fa
:04022000e8030000ef
:020000040000fa
:04022400e8030000eb
:020000040000fa
:04022800e8030000e7
:020000040000fa
:04022c00e8030000e3
:020000040000fa
:04023000e8030000df
:020000040000fa
:04023400e8030000db
:020000040000fa
:04023800e8030000d7
:020000040000fa
:04023c00e8030000d3
:020000040000fa
:04024000e8030000cf
:020000040000fa
:04024400e8030000cb
:020000040000fa
:04024800e8030000c7
:020000040000fa
:04024c00e8030000c3
:020000040000fa
:04025000e8030000bf
:020000040000fa
:04025400e8030000bb
:020000040000fa
:04025800e8030000b7
:020000040000fa
:04025c00e8030000b3
:020000040000fa
:04026000e8030000af
:020000040000fa
:04026400e8030000ab
:020000040000fa
:04026800e8030000a7
:020000040000fa
:04026c00e8030000a3
:020000040000fa
:04027000e80300009f
:020000040000fa
:04027400e80300009b
:020000040000fa
:04027800e803000097
:020000040000fa
:04027c00e803000093
:020000040000fa
:04028000e80300008f
:020000040000fa
:100400006f0221000eff24000e0188000000000092
:10041000000020000000e000020032000001200087
:100420002002880014000700eb0007000000e00035
:1004300003003a00607c2000010020000200370029
:100440000000200001002000810f70000100320038
:100450000f000700000020000000e0000200320052
:1004600000000200000000000a0702000000000077
:100470000040da000000fe00a00120000000e000c3
:1004800002003200002020009001880000000600d9
:10049000a1028800800478000000eb001f003700f4
:1004a000e284440054a0b4009905ba00e2844400f8
:1004b00054a0b4009906ba00e284440054a0b400e9
:1004c0000006eb00476fde00fd07b200ae018800ba
:1004d000636ce10003003a000ad801000000eb0061
:1004e0000e003700606ce10008003a00004deb00a0
:1004f0000a05e800020039003420ec000af0a000f0
:100500008b05e900f9ff3e00040037006168e10057
:10051000010032000086eb000b00070019c7ba008b
:100520000e04e0001905ba0003003a000a00e000da
:10053000dbff3a0000000600fe07b200ae028800b2
:100540008a047800f5ff37000cd0a300e20f4d00bd
:100550001c003b0089027800354dba000a05e8000e
:10056000020039003420ec000af0a0008b05e900fd
:100570000f003200254dba000a05e80002003900dc
:100580003420ec000af0a0008b05e90008003200de
:100590000c00e0000600320015cdba000a05e800a4
:1005a000020039003420ec000af0a0008b05e900bd
:1005b0008984e80054a0b4000b00e000e2ff3a0098
:1005c000000006009902ba00055d78008b05e9007d
:1005d000f7ff3200c82ade00055d78008b05e900d0
:1005e000f3ff32000c00e000f1ff320019ddba0029
:1005f000eeff37003600f800809fbe00829fbe00ed
:10060000849fbe00869fbe000000fa00c028a9009b
:100610000000eb004f0207000080fa004f03be000d
:100620004f02be004f01be004f00be003600f90071
:10063000004006003600f800809fbe00829fbe008a
:10064000849fbe00869fbe000000fa00480207009b
:10065000c048a900100020003e0207000080fa00f8
:100660004f03be004f02be004f01be004f00be0050
:100670003600f900004006003600f800809fbe00fa
:10068000829fbe00849fbe00869fbe000000fa00cd
:10069000c068a900200020002e0207000080fa0098
:1006a0004f03be004f02be004f01be004f00be0010
:1006b0003600f900004006003600f800809fbe00ba
:1006c000829fbe00849fbe00869fbe000000fa008d
:1006d000c088a900300020001e0207000080fa0038
:1006e0004f03be004f02be004f01be004f00be00d0
:1006f0003600f900004006003600f800809fbe007a
:10070000829fbe00849fbe00869fbe000000fa004c
:10071000c0a8a900400020000e0207000080fa00d7
:100720004f03be004f02be004f01be004f00be008f
:100730003600f900004006003600f800809fbe0039
:10074000829fbe00849fbe00869fbe000000fa000c
:10075000c608a90070002000fe0107000080fa0012
:100760004f03be004f02be004f01be004f00be004f
:100770003600f900004006003600f800809fbe00f9
:10078000829fbe00849fbe00869fbe000000fa00cc
:100790002146800000022000008060000000e00090
:1007a00003003200c4a8a90090002000e90107005e
:1007b00020468000700060000000e000030032006e
:1007c000c488a900a0002000e2010700ffff370055
:0c07d0000040da000000fe000000050000
:020000040000fa
:1007dc00486500006c6c00006f2000006167000031
:1007ec00616900006e2c0000004d00006567000080
:1007fc00686100006a2000004b610000627200001a
:04080c006100000087
:020000040000fa
:100810000000fa0000c22100101288001000200021
:1008200020128800c0002a00001288000080fa0010
:10083000000006000400fa00000f7800110798007d
:100840000000000000128000620060000000e00074
:10085000fcff3a001e00780010007800401288006b
:1008600000000000011280000002200000806000f3
:100870000000e000fbff3a001e00900041128000e3
:10088000010878000080fa00000006001800fa0055
:10089000100f9800210f9800320f98000000eb0015
:1008a000000f78000000eb00100798000000eb003c
:1008b000700798000000eb00000f98002000200057
:1008c000600798002e0890000000d100200f9800cb
:1008d0001e0890000000e00005003a000000eb0058
:1008e0005007980070004700200798000400370068
:1008f000ee009000510798009e0890002107980094
:100900003e0890000000e00005003a000000eb0007
:10091000400798006e004700300798000500370038
:10092000ee00900041079800be0890003107980043
:100930000000000000128000620060000000e00083
:10094000fcff3a001b0037000012800062006000cc
:100950000000e00008003a002e009000100078002f
:1009600040128800ae0090005e00900000804000c1
:10097000200798001e0fe8000112800000022000ee
:10098000008060000000e0000a003a003e00900095
:100990004112800001087800be0090004e009000d7
:1009a00000804000300798001e0090000000e80022
:1009b000100798002e0890009e007800808f50004d
:1009c000e1ff39000f003700011280000002200013
:1009d000008060000000e0000a003a003e00900045
:1009e0004112800001087800be0090004e00900087
:1009f00000804000300798001e0090000000e800d2
:100a0000100798009e0090002e089000808f5000e4
:100a1000edff39001e0078000080fa00000006009b
:100a20000400fa00100798008e0078000e80e8009d
:100a300080ff07001e0078000080fa00000006001a
:100a40000600fa00000f78001107980022079800ae
:100a5000ae0090001e007800010178009e0090001a
:100a60008aff07000080fa00000006000000fa007c
:100a7000001280000080fa00000006000000fa006a
:100a8000003a80000080fa00000006000200fa0030
:100a9000faff0700000f78001e007800240007000e
:100aa0000004e0000200320000002800710007008e
:100ab0001e0078002a0007000004e0000200320057
:100ac000000024006b0007001e00780032000700c1
:100ad0000004e00002003200002020006500070052
:100ae0001e0078003a0007000004e0000200320017
:100af000000820005f0007001e0078004200070089
:100b00000004e00002003200000420005900070049
:100b10001e0078004a0007000004e00002003200d6
:100b200000012000530007000080fa0000000600ca
:100b30000400fa00100798000040eb00004f780016
:100b40001e0090000000e00002003d0010c0b30055
:100b5000004f78001e4078000080fa000000060078
:100b60000400fa00100798000040eb00004f7800e6
:100b70009e00900000002400008060000000e00063
:100b80000200320010c0b300004f78001e40780011
:100b90000080fa00000006000400fa001007980028
:100ba0000040eb00004f78009e00900000202000e5
:100bb000008060000000e0000200320010c0b300be
:100bc000004f78001e4078000080fa000000060008
:100bd0000400fa00100798000040eb00004f780076
:100be0009e00900000082000008060000000e000ef
:100bf0000200320010c0b300004f78001e407800a1
:100c00000080fa00000006000400fa0010079800b7
:100c10000040eb00004f78009e0090000004200090
:100c2000008060000000e0000200320010c0b3004d
:100c3000004f78001e4078000080fa000000060097
:100c40000400fa00100798000040eb00004f780005
:100c50001e009000700060000000e0000200320002
:100c600010c0b300004f78001e4078000080fa00ea
:100c7000000006000200fa00000f78009e80ea00e3
:100c8000003a800000806000003a88000080fa008e
:100c9000000006000000fa004027ef000080fa0084
:100ca000000006000600fa00200798000000eb0094
:100cb000000f78000c0037000000eb0010079800d0
:100cc00004003700000000001e0090000000e80053
:100cd000100798009e009000b01c2000808f5000ec
:100ce000f8ff36001e0fe8002e0090009e007800ee
:100cf000808f5000f0ff39000080fa0000000600ed
:100d00000200fa00004f780000000000001280008e
:100d1000620060000000e000fcff3a001e80fb0063
:100d2000401288000080fa00000006000200fa006d
:100d3000000f78001e00780000407800f0ff0700e8
:100d40000080fa00000006000000fa0010002000f9
:100d5000d4ff070080c3b300e9ff070080c0b300e1
:100d6000e7ff070010c0b300e5ff070020002000e8
:100d7000ccff070060c0b300e1ff070020c0b30054
:100d8000dfff0700c0c0b300ddff07000080fa00ee
:100d9000000006000200fa00000f780020c0b30037
:100da000d7ff0700050037001e00780010407800cc
:100db0000000fb00ddff07001e0fe8001e007800aa
:100dc000104078000004e000f7ff3a000080fa00cd
:100dd000000006000200fa00000f7800c0c0b30057
:100de000c7ff0700050037001e007800104078009c
:100df0000000fb00cdff07001e0fe8001e0078007a
:100e0000104078000004e000f7ff3a000080fa008c
:100e1000000006000000fa0033000700caff0700c8
:100e2000e03e2800dbff0700b03f2800e9ff070095
:100e30009170800000002800008060000000e00049
:100e400002003a0014cea900f9ff370014cea80022
:100e5000f7ff37000000fa0000142300203a880052
:100e60004827ef004e27ef0020032000303a88008b
:100e70006027ef006227ef006427ef006627ef008e
:100e80006c27ef007200200080072000a1092000dd
:100e900033742000804978008149780082497800c5
:100ea0000001eb0060042000710520002374200085
:100eb0008049780081497800824978000080fa00f2
:100ec000000006000200fa00000f780021028000f6
:100ed000200f2000008060001e00700020028800ab
:100ee0000080fa00000006000000fa00070007007a
:100ef000d8ff07003000070045fe07000002200071
:100f0000f0ff07000080fa00000006000000fa0071
:100f1000042eef0000402000a07088006001200037
:100f200000708800e0a32f00807088000c2eef0076
:100f30001c2eef000a2eef001a2eef00062eef00f7
:100f4000162eef000e2eef001e2eef000080fa008e
:100f5000000006000200fa00000f78009e007800f2
:100f6000218088000000fe000080fa0000000600da
:100f70000000fa006000210080077800e0012100f5
:0c0f8000000188000080fa00000006005c
:020000040000fa
:100f8c00061000002000000080000000041000008b
:100f9c000200000082000000ffff000000100000b3
:0c0fac00040000008000000000000000b5
:020000040000fa
:100fb8000000fa0021428000f08f2f0000806000be
:100fc8000080a000204288000080fa00000006008f
:100fd800809fbe00ec8057003100780000808800b8
:100fe8001100780002f0b7004f00be0000000600b4
:020000040000fa
:020000040002f8
:04afe000cfff00009f
:020000040000fa
:020000040002f8
:04afe400cfff00009b
:020000040000fa
:020000040002f8
:04afe8007fff0000e7
:020000040000fa
:020000040002f8
:04afec00bfff0000a3
:020000040000fa
:020000040002f8
:04aff0007fff0000df
:020000040000fa
:020000040002f8
:04aff400ffffff005c
:00000001FF
