:020000040000fa
:080000000002040000000000f2
:020000040000fa
:04000800fa020000f8
:020000040000fa
:04000c003c030000b1
:020000040000fa
:040010009c0300004d
:020000040000fa
:040014001a030000cb
:020000040000fa
:040018005c03000085
:020000040000fa
:04001c007c03000061
:020000040000fa
:04002000bc0300001d
:020000040000fa
:04002400e8030000ed
:020000040000fa
:04002800e8030000e9
:020000040000fa
:04002c00e8030000e5
:020000040000fa
:04003000e8030000e1
:020000040000fa
:04003400e8030000dd
:020000040000fa
:04003800e8030000d9
:020000040000fa
:04003c00e8030000d5
:020000040000fa
:04004000e8030000d1
:020000040000fa
:04004400e8030000cd
:020000040000fa
:04004800e8030000c9
:020000040000fa
:04004c00e8030000c5
:020000040000fa
:04005000e8030000c1
:020000040000fa
:04005400e8030000bd
:020000040000fa
:04005800e8030000b9
:020000040000fa
:04005c00e8030000b5
:020000040000fa
:04006000e8030000b1
:020000040000fa
:04006400e8030000ad
:020000040000fa
:04006800e8030000a9
:020000040000fa
:04006c00e8030000a5
:020000040000fa
:04007000e8030000a1
:020000040000fa
:04007400e80300009d
:020000040000fa
:04007800e803000099
:020000040000fa
:04007c00e803000095
:020000040000fa
:04008000e803000091
:020000040000fa
:04008400e80300008d
:020000040000fa
:04008800e803000089
:020000040000fa
:04008c00e803000085
:020000040000fa
:04009000e803000081
:020000040000fa
:04009400e80300007d
:020000040000fa
:04009800e803000079
:020000040000fa
:04009c00e803000075
:020000040000fa
:0400a000e803000071
:020000040000fa
:0400a400e80300006d
:020000040000fa
:0400a800e803000069
:020000040000fa
:0400ac00e803000065
:020000040000fa
:0400b000e803000061
:020000040000fa
:0400b400e80300005d
:020000040000fa
:0400b800e803000059
:020000040000fa
:0400bc00e803000055
:020000040000fa
:0400c000e803000051
:020000040000fa
:0400c400e80300004d
:020000040000fa
:0400c800e803000049
:020000040000fa
:0400cc00e803000045
:020000040000fa
:0400d000e803000041
:020000040000fa
:0400d400e80300003d
:020000040000fa
:0400d800e803000039
:020000040000fa
:0400dc00e803000035
:020000040000fa
:0400e000e803000031
:020000040000fa
:0400e400e80300002d
:020000040000fa
:0400e800e803000029
:020000040000fa
:0400ec00e803000025
:020000040000fa
:0400f000e803000021
:020000040000fa
:0400f400e80300001d
:020000040000fa
:0400f800e803000019
:020000040000fa
:0400fc00e803000015
:020000040000fa
:04010000e803000010
:020000040000fa
:04010400e80300000c
:020000040000fa
:04010800e803000008
:020000040000fa
:04010c00e803000004
:020000040000fa
:04011000e803000000
:020000040000fa
:04011400e8030000fc
:020000040000fa
:04011800e8030000f8
:020000040000fa
:04011c00e8030000f4
:020000040000fa
:04012000e8030000f0
:020000040000fa
:04012400e8030000ec
:020000040000fa
:04012800e8030000e8
:020000040000fa
:04012c00e8030000e4
:020000040000fa
:04013000e8030000e0
:020000040000fa
:04013400e8030000dc
:020000040000fa
:04013800e8030000d8
:020000040000fa
:04013c00e8030000d4
:020000040000fa
:04014000e8030000d0
:020000040000fa
:04014400e8030000cc
:020000040000fa
:04014800e8030000c8
:020000040000fa
:04014c00e8030000c4
:020000040000fa
:04015000e8030000c0
:020000040000fa
:04015400e8030000bc
:020000040000fa
:04015800e8030000b8
:020000040000fa
:04015c00e8030000b4
:020000040000fa
:04016000e8030000b0
:020000040000fa
:04016400e8030000ac
:020000040000fa
:04016800e8030000a8
:020000040000fa
:04016c00e8030000a4
:020000040000fa
:04017000e8030000a0
:020000040000fa
:04017400e80300009c
:020000040000fa
:04017800e803000098
:020000040000fa
:04017c00e803000094
:020000040000fa
:04018000e803000090
:020000040000fa
:04018400e80300008c
:020000040000fa
:04018800e803000088
:020000040000fa
:04018c00e803000084
:020000040000fa
:04019000e803000080
:020000040000fa
:04019400e80300007c
:020000040000fa
:04019800e803000078
:020000040000fa
:04019c00e803000074
:020000040000fa
:0401a000e803000070
:020000040000fa
:0401a400e80300006c
:020000040000fa
:0401a800e803000068
:020000040000fa
:0401ac00e803000064
:020000040000fa
:0401b000e803000060
:020000040000fa
:0401b400e80300005c
:020000040000fa
:0401b800e803000058
:020000040000fa
:0401bc00e803000054
:020000040000fa
:0401c000e803000050
:020000040000fa
:0401c400e80300004c
:020000040000fa
:0401c800e803000048
:020000040000fa
:0401cc00e803000044
:020000040000fa
:0401d000e803000040
:020000040000fa
:0401d400e80300003c
:020000040000fa
:0401d800e803000038
:020000040000fa
:0401dc00e803000034
:020000040000fa
:0401e000e803000030
:020000040000fa
:0401e400e80300002c
:020000040000fa
:0401e800e803000028
:020000040000fa
:0401ec00e803000024
:020000040000fa
:0401f000e803000020
:020000040000fa
:0401f400e80300001c
:020000040000fa
:0401f800e803000018
:020000040000fa
:0401fc00e803000014
:020000040000fa
:04020000e80300000f
:020000040000fa
:04020400e80300000b
:020000040000fa
:04020800e803000007
:020000040000fa
:04020c00e803000003
:020000040000fa
:04021000e8030000ff
:020000040000fa
:04021400e8030000fb
:020000040000fa
:04021800e8030000f7
:020000040000fa
:04021c00e8030000f3
:020000040000fa
:04022000e8030000ef
:020000040000fa
:04022400e8030000eb
:020000040000fa
:04022800e8030000e7
:020000040000fa
:04022c00e8030000e3
:020000040000fa
:04023000e8030000df
:020000040000fa
:04023400e8030000db
:020000040000fa
:04023800e8030000d7
:020000040000fa
:04023c00e8030000d3
:020000040000fa
:04024000e8030000cf
:020000040000fa
:04024400e8030000cb
:020000040000fa
:04024800e8030000c7
:020000040000fa
:04024c00e8030000c3
:020000040000fa
:04025000e8030000bf
:020000040000fa
:04025400e8030000bb
:020000040000fa
:04025800e8030000b7
:020000040000fa
:04025c00e8030000b3
:020000040000fa
:04026000e8030000af
:020000040000fa
:04026400e8030000ab
:020000040000fa
:04026800e8030000a7
:020000040000fa
:04026c00e8030000a3
:020000040000fa
:04027000e80300009f
:020000040000fa
:04027400e80300009b
:020000040000fa
:04027800e803000097
:020000040000fa
:04027c00e803000093
:020000040000fa
:04028000e80300008f
:020000040000fa
:100400006f0621000eff24000e018800000000008e
:10041000000020000000e000020032000001200087
:100420002002880014000700eb0007000000e00035
:1004300003003a00c08522000100200002003700be
:100440000000200001002000810f70000100320038
:100450000f000700000020000000e0000200320052
:100460000000020000000000ee2802000000000072
:100470000040da000000fe00800120000000e000e3
:1004800002003200002020009001880000000600d9
:10049000a1028800800478000000eb001f003700f4
:1004a000e284440054a0b4009905ba00e2844400f8
:1004b00054a0b4009906ba00e284440054a0b400e9
:1004c0000006eb00476fde00fd07b200ae018800ba
:1004d000636ce10003003a000ad801000000eb0061
:1004e0000e003700606ce10008003a00004deb00a0
:1004f0000a05e800020039003420ec000af0a000f0
:100500008b05e900f9ff3e00040037006168e10057
:10051000010032000086eb000b00070019c7ba008b
:100520000e04e0001905ba0003003a000a00e000da
:10053000dbff3a0000000600fe07b200ae028800b2
:100540008a047800f5ff37000cd0a300e20f4d00bd
:100550001c003b0089027800354dba000a05e8000e
:10056000020039003420ec000af0a0008b05e900fd
:100570000f003200254dba000a05e80002003900dc
:100580003420ec000af0a0008b05e90008003200de
:100590000c00e0000600320015cdba000a05e800a4
:1005a000020039003420ec000af0a0008b05e900bd
:1005b0008984e80054a0b4000b00e000e2ff3a0098
:1005c000000006009902ba00055d78008b05e9007d
:1005d000f7ff3200c82ade00055d78008b05e900d0
:1005e000f3ff32000c00e000f1ff320019ddba0029
:1005f000eeff37003600f800809fbe00829fbe00ed
:10060000849fbe00869fbe000000fa00c028a9009b
:100610000000eb002d1307000080fa004f03be001e
:100620004f02be004f01be004f00be003600f90071
:10063000004006003600f800809fbe00829fbe008a
:10064000849fbe00869fbe000000fa0026130700ac
:10065000c048a900100020001c1307000080fa0009
:100660004f03be004f02be004f01be004f00be0050
:100670003600f900004006003600f800809fbe00fa
:10068000829fbe00849fbe00869fbe000000fa00cd
:10069000c068a900200020000c1307000080fa00a9
:1006a0004f03be004f02be004f01be004f00be0010
:1006b0003600f900004006003600f800809fbe00ba
:1006c000829fbe00849fbe00869fbe000000fa008d
:1006d000c088a90030002000fc1207000080fa004a
:1006e0004f03be004f02be004f01be004f00be00d0
:1006f0003600f900004006003600f800809fbe007a
:10070000829fbe00849fbe00869fbe000000fa004c
:10071000c0a8a90040002000ec1207000080fa00e9
:100720004f03be004f02be004f01be004f00be008f
:100730003600f900004006003600f800809fbe0039
:10074000829fbe00849fbe00869fbe000000fa000c
:10075000c608a90070002000dc1207000080fa0023
:100760004f03be004f02be004f01be004f00be004f
:100770003600f900004006003600f800809fbe00f9
:10078000829fbe00849fbe00869fbe000000fa00cc
:100790002146800000022000008060000000e00090
:1007a00003003200c4a8a90090002000c71207006f
:1007b00020468000700060000000e000030032006e
:1007c000c488a900a0002000c0120700ffff370066
:1007d0000040da000000fe00000005000f04b00039
:1007e0008e1f780002027800030178000000e0000c
:1007f0000200320000077800020037000efc2f00d4
:100800000f0747008002eb000100e000010032000a
:100810008102e9000f007800e003b1001d0009002b
:100820000018eb000080eb0090a79f002310200031
:10083000a3a79f00bea79f00c1a79f00d5a79f00a9
:100840000100e00003003d00b10420002183880086
:1008500007003700004feb00fea79f00eea79f00a8
:100860008400780020fc2f000f00400003000700e8
:100870004f0778000f04b100000006000200fa00e4
:10088000881f780000047800e2bf9f006481570051
:10089000080078008e020700980090000148a3002d
:1008a000010032000080eb004f0478000080fa0065
:1008b00000000600881f780000047800000820006f
:1008c000808f50001a00350010082000808f5000e3
:1008d0000d00340030082000808f500014003a00d2
:1008e00092007800688050000009780010027800bb
:1008f0009002900020039000b0039000049cbe0082
:100900000694be000800370092027800648052000e
:10091000000978009000900010007800d70a0700c6
:10092000009cbe000294be001000200001003700b1
:100930000000eb004f04780000000600840820004f
:10094000848f50001d0032000d003c001408200070
:10095000848f50002700320002003c000408200071
:100960000400370024082000848f50003600320035
:1009700044082000848f500047003a003a003700b6
:10098000040a2000848f50002900320004003c003b
:1009900004092000848f50003f003a002a003700ed
:1009a000020c2000828f500033003200020f200022
:1009b000828f500038003a002f0037009380e90002
:1009c0000200e00005003200810978001102fb00fe
:1009d000cfa2de00612bb9002c003700810978001e
:1009e000114278000482fb008002eb006033b80003
:1009f0002600370013027800e40052000200e000f5
:100a000006003200810978001102780091029000fe
:100a10004fabde00860378001c00370081097800a8
:100a200011027800910290006033b800170037007f
:100a30009380e9008109780011027800cfa2de00de
:100a4000612bb9001100370093027800e880520052
:100a50008109780011027800910290002103900032
:100a6000b1039000090037009380e9000200e00024
:100a700002003200efff37009380e900810978001f
:100a8000110278008002eb006033b8000498be00c9
:100a90000690be001000050000000500440820007c
:100aa000848f50002500320008003c00140820000c
:100ab000848f50001400320024082000848f5000de
:100ac00024003200040820000c0037000409200034
:100ad000848f50001f00320004003c008408200076
:100ae000848f500024003a000e003700040a2000d2
:100af000848f500011003200040c2000848f5000bd
:100b00001d003a000d0037009380e900810978004c
:100b10009100780001087800cf91de008288be0045
:100b2000140037009380e900810978009100780073
:100b300001087800824878000e0037009380e900b1
:100b40008109780091007800010878008208780017
:100b5000080037009380e90081097800910078004f
:100b6000010878006112b900612bb9008498be00b9
:100b70008690be001000050000000500889fbe00a2
:100b8000000478004800900082047800808f5400b0
:100b900001003600800478000901780058009000b8
:100ba0001b02070058009000090040005004980004
:100bb000c800900089845000490498000048eb0068
:100bc0004f04be0000000600f2874700889fbe0069
:100bd0008a9fbe008c9fbe008e1f78008004780024
:100be000010578000204780083057800610762003f
:100bf00002003a008b0f5400080039000801780009
:100c00008a00780009007800dcff07008b0f540091
:100c100002003900880578001e003700088655005c
:100c20000c017800f00f5600010036000201200090
:100c3000010220007e805700fc0107008c0678002e
:100c40000500370002012000fe80570009007800ef
:100c5000caff0700f0865600ef8f5600f9ff3e00ee
:100c60004461de0000ff2f008091b9000c014100bb
:100c7000fe80570009007800c0ff07000e00e0006a
:100c800004003a00080178008a0078000900780022
:100c9000baff07000b0078004f0778004f06be0030
:100ca0004f05be004f04be002f01b100000006003a
:100cb00000000500000005000000050000017800ac
:100cc0000040eb008080fb0081804000e3022100b7
:100cd00081814100134278000404e00004003a00de
:100ce000f002210081004000114078000000060061
:100cf00092017800934f520005003a00f002210063
:100d000081004000114078000309e800010037002d
:100d10000040e800ea4f5000eaff360000000600fd
:100d2000f6874700889fbe008a9fbe008c9fbe004a
:100d30008e1f780000057800010478008305780094
:100d4000040678000000eb00c0b79f008080eb0035
:100d5000d1b79f00e0b79f00f2b79f0000082000c6
:100d600080bf9f0098007800010078008004eb00ad
:100d7000010037008904e800304178000204e000f7
:100d80000300320053c2b300834f5100f9ff3a0011
:100d90000900e00004003200090178000a00780030
:100da00076ff0700188c44001807780050c2b30083
:100db0009e4f10003f013a000e07e8000e0c78002d
:100dc00010003700cfb097000100a0000b003700e3
:100dd000cfb097000110a00008003700cfb09700f7
:100de0000120a00005003700cfb097000130a0001f
:100df00002003700cfb097000140a000c1b79f00ac
:100e0000000ce8001800780090407800b2c2b300ef
:100e100082cf5000f1ff320007003c0002c2b30055
:100e200082cf5000f0ff320032c2b30082cf5000b8
:100e300007003a00efff3700d2c2b30082cf500064
:100e4000e0ff320002c3b30082cf5000e0ff320067
:100e5000a2c2b30082cf50000d003a00000ce8009f
:100e60001c80e900000e780010007800e0b79f00b9
:100e70000000e0000f003d00cfb097000100a2008d
:100e8000c1b79f000000ea00e0b79f0009003700eb
:100e900039010700e0b79f0001003700000ce800af
:100ea000180078009000fb000103b100e98f5000aa
:100eb000faff36004fb097000008a300020032008e
:100ec0000010a100c0b79f0018007800e1c2b30075
:100ed00090cf100016003a008000eb00d1b79f00c1
:100ee0000000e800000c7800a1c2b30090cf100011
:100ef00006003a00000ce8001c80e900000e7800b3
:100f000010007800d0b79f00090037001a010700d1
:100f1000d0b79f0001003700000ce80018007800ef
:100f20009000fb000103b100e98f5000faff36008a
:100f30000800780061ff07008046780018007800fc
:100f40001000fb00b501070091062000810f500042
:100f50003800320012003c0041062000810f500092
:100f6000340032000a003c0011062000810f5000be
:100f70002000320031062000810f5000a000320016
:100f800051022000810f5000bc003a00b40037002d
:100f900071062000810f5000b8003c008800370027
:100fa00001072000810f50005c00320007003c0068
:100fb000e1062000810f50007a003200f106200087
:100fc000810f5000ad003a00390037005107200072
:100fd000810f50002700320081072000810f500050
:100fe0004200320031072000810f5000a3003a0078
:100ff0008f0037008d80fb000c01780000fe2f0071
:101000000f0040002bfe07000000e000a8003200a7
:1010100018007800000ce8009041780002fe2f00d4
:101020000f014100f88057000a0078008301070093
:101030000e0037008d80fb008c017800120020002c
:1010400000fe2f000f0040003cfe07000000e00003
:1010500097003200180ce80002fe2f000f0141003b
:10106000f88057000a0078000c04070080844400d0
:10107000900037008d80fb008c0178000001eb00b0
:1010800000fe2f000f0040002cfe07000000e000d3
:1010900087003200180ce80002fe2f000f0141000b
:1010a000f88057000a007800e2070700efff3700da
:1010b0008d80fb008c0178000001eb0000fe2f000a
:1010c0000f0040001dfe07000000e0007800320025
:1010d000180ce80002fe2f000f014100f8805700b5
:1010e0000a0078001d070700e0ff37008d80fb0035
:1010f0008c0178000001eb0000fe2f000f00400083
:101100000efe07000000e0006900320018007800c1
:10111000000ce800904178001c0037008c0178003a
:101120000001eb00010f200000fe2f000f00400027
:1011300002fe07000000e0005d003200180ce8002d
:101140000fb097009fb097002fb19700bfb19700e5
:10115000e00f5000e08f5800e00f5900e08f590079
:1011600009003a00cfb597006fb4970060022100e4
:10117000120107000b027800880178000001780056
:10118000610221004700370083c7b30002fe2f0031
:101190000f014100f88057000a007800d0070700cf
:1011a000b2ff37000b8144008d80fb008c0178007a
:1011b00000fe2f000f00400038fe07003c00370003
:1011c0008d80fb000c01780000fe2f000f00400016
:1011d000b8fd07000000e00035003200180078007c
:1011e000000ce8009041780002fe2f000f01410042
:1011f000f88057000a007800050407009bff3700bd
:1012000000c8b30080cf560029003a00180ce8004f
:101210001c80e900000e780010407800e0df9f009d
:1012200013002000e2fd2f000f01410008003700ed
:1012300000c8b30080cf56001d003a00180ce8002b
:101240001c80e900000e78008001eb00100178009e
:10125000f88057000a007800f906070083ff37007e
:1012600000c8b30080cf560011003a00180ce80007
:101270004fb29700efb19700080037000e0c7800ce
:101280000000eb00c0b79f00e0b79f000080eb00bc
:10129000d0b79f000002eb0084017800120020000c
:1012a000c10221000a00780047fe07006fff3700e7
:1012b000180ce800090078004f0778004f06be00c0
:1012c0004f05be004f04be006f01b10000000600d4
:1012d0008200fa00889fbe008a1f7800000578000f
:1012e00082047800c13f9f000004eb00100037002b
:1012f0000902780088017800a2f72f000f01410051
:1013000081f72f008f8040000a00780084fe0700dc
:1013100008004000880f500004003d00b004200089
:10132000208388000084eb0004003700000478006c
:101330004f3897001004e000edff3a0008007800f5
:101340004f0578004f04be000080fa000000060040
:10135000800078001000200002022000828f5000e0
:1013600004003200e9805000e48f50000100360094
:101370000000eb0000000600889fbe008a1f780076
:10138000000578000a047800984478000805e80011
:101390000900fb00eeff07000000e000f9ff3a0043
:1013a000b0c2b30080cf540005003200d0c2b300f9
:1013b0008000eb0080cf540005003a0002003700a7
:1013c0008000eb0001003700110020000804e80055
:1013d0000000eb0003003700ea00b90002005000f3
:1013e0000003b0003801fb0003fd2f0082814100a3
:1013f000e98f5100f8ff36000100e00001003a00db
:101400000000ea004f0578004f04be00000006000f
:101410008001780002003700b15978000201e9002c
:101420000200e000fcff3a0000000600889fbe00ba
:101430008a9fbe00800478000200e0005b0032005a
:1014400001407800814c780082814400f1f99f00ce
:10145000e20f51005500360091449800a1449800d5
:10146000e1f99f00d1f99f00e60f51004f003600cf
:10147000b1449800c1f99f00e80f51004b003600bd
:101480000905ea00630565000a8444000a05510065
:10149000c1ff2f00010565000080fb008000eb000c
:1014a000121020001310200054080700008cbe000a
:1014b0000a01440060b99f0071b99f00e80f550010
:1014c0003a00360020049800310498004004980047
:1014d0005104980020b99f0031b99f0040b99f0086
:1014e00051b99f00f80f5500300036006004980095
:1014f00071049800000c9800110c9800200c9800c2
:10150000310c9800400c9800510c980020b19f00bd
:1015100031b19f0040b19f0051b19f0060b19f0069
:1015200071b19f0000b99f0011b99f006401640070
:101530007801410002044400020555006011b80022
:101540000203be000002be000403be006022b80019
:1015500000007200818072000201730083817300b9
:1015600010003700009cbe000294be0040049800aa
:10157000510498006204980073049800000c9800cd
:10158000110c9800220c9800330c9800400c980025
:10159000510c9800620c9800730c98000a02b1007c
:1015a0000802b000ff0f5500eeff3e000900780072
:1015b0004f05be004f04be0000000600800078000a
:1015c000040037003104e00002003a00000051003e
:1015d00000000600010178000108a300f9ff3a00ad
:1015e0008101780031017800f4ef2f0002024200ff
:1015f0000281ea000201620004082800040161007f
:10160000f7ff320083007800010178003104e00028
:10161000fdff3a000000510000000600f1fb2f0022
:1016200080804000f98f500001003e000050a00073
:1016300000000600f9ff370000000600ef03b000cd
:10164000889fbe008a9fbe008c9fbe008e1f7800c0
:10165000c09f9f008346780011007800f0a79f008c
:1016600091019000f39f9f0021029000d4a79f005a
:10167000c1029000b59f9f003107900012047800ce
:101680009204900022059000b2059000d8b79f0008
:10169000e9b79f00fab79f008bbf9f006022b80098
:1016a0006033b8000800be000a01be0069070700e9
:1016b0000000e0000b003d005fb09700efb0970026
:1016c0007fb197008fb9970003f0a200d0b79f00b9
:1016d000e1b79f00f2b79f0083bf9f00d0c2b30065
:1016e00004003700ffa097000128a3000800320083
:1016f000b0c2b300004f78005fa197000201e9007b
:10170000e2a79f001300200083af9f000f00370067
:101710007fa297000438a3000800320000c2b30083
:10172000004f7800dfa297008502e900e5a79f003f
:101730001600200086af9f0004003700dfa397004b
:10174000e7a79f000004eb0088af9f005fb0970001
:10175000efb097007fb197008fb99700b6ff0700f1
:10176000f4ff2f00f5ff2f00f6ff2f00f7ff2700f3
:1017700004026000858260000603610087836100c7
:101780006000b8000200200003ff27000020e100f5
:1017900001a8e10002b0e10003b8e1000b003a004b
:1017a0008d06fb001d04b1008fac970009004700b7
:1017b00041042100f98f5600010036008104210008
:1017c000f606070080042100230237000020e10014
:1017d00001a8e10002b0e10003b8e1000b0036000f
:1017e0008d06fb001d04b1000fad97000a004700f5
:1017f000c1042100f98f56000100360001052100c7
:10180000e606070000052100130237008fad9700a0
:101810000b00470001c3b300014878000b00e8004b
:10182000000147008d00fb00f3fb2f008381400087
:10183000d39f9f0081c7b300f98f510001003e0084
:1018400081c5b300014978000000e80080af9f0027
:101850006022b8006033b8005fb09700efb0970027
:101860007fb197008fb99700fa0607000000e000eb
:101870005e0032000002eb006044b8000a00200065
:101880000bff230098a79f00a9a79f00baa79f005e
:10189000cba79f0004067800050037000c06e8007f
:1018a0001fac9700afac97003fad9700cfad97004e
:1018b0000802be000a03be000800be000a01be0006
:1018c0005a0707000002be000203be0094af9f004b
:1018d000a5af9f00b6af9f00c7af9f005fb0970056
:1018e000efb097007fb197008fb99700d906070036
:1018f0000000e000e9ff3d009caf9f002a00370098
:101900006022b8000600200007fe23000800be0089
:101910000a01be003f0807006022b8006033b8002b
:10192000cc0607000000e00016003a006022b80074
:1019300006002000073524000800be000a01be0092
:10194000340807000004be000205be006022b80093
:1019500006002000073524005fb09700efb0970025
:101960007fb197008fb997002a0807000002be00d8
:101970000203be00d4b79f00e5b79f00f6b79f00f3
:1019800087bf9f006022b8000600200007fe2300ea
:101990000800be000a01be001e0807000004be00c9
:1019a0000205be000c06e9000802be000a03be00e4
:1019b0005fb09700efb097007fb197008fb99700a5
:1019c000a40607000000e000cdff35000800be00bf
:1019d0000a01be0090a79f00a1a79f00b2a79f0089
:1019e000c3a79f009caf9f00090037008000eb0059
:1019f00091af9f006022b8000600200007ff23007f
:101a000094a79f00a5a79f00b6a79f00c7a79f0008
:101a1000ff9a9700800120000500e00001003500da
:101a20007f9897000000e800e09f9f001fa49700a8
:101a3000afa497003fa59700cfa5970098b79f0048
:101a4000a9b79f00bab79f00cbb79f005fb49700bc
:101a5000efb497007fb597008fbd97000006eb00ad
:101a60003a0037001fb29700afb297003fb397001c
:101a7000cfb397000800be000a01be00360707007a
:101a8000930a07000002be000203be00d4af9f000d
:101a9000e5af9f00f6af9f0087b79f00960607004f
:101aa0008002780085a79f001fb29700afb2970011
:101ab0003fb39700cfb397005fa89700efa89700b8
:101ac0007fa997008fb19700d20707000002be00e0
:101ad0000203be000800be000a01be00cd060700da
:101ae0000004be000205be006022b800060020000f
:101af00007fb23001fb09700afb097003fb19700de
:101b0000cfb19700c30707000002be000203be006a
:101b100094b79f00a5b79f00b6b79f00c7b79f00b7
:101b20000c06e800ff9a97000500e00007003d0062
:101b30006022b8006033b8000800be000a01be0091
:101b4000440607000000e000040032006f9b97008d
:101b5000860f5600c3ff350001003700ec9f9f0041
:101b60006022b80006002000070224001fb0970082
:101b7000afb097003fb19700cfb19700a50707001e
:101b80000002be000203be0094b79f00a5b79f00ed
:101b9000b6b79f00c7b79f000800be000a01be008d
:101ba0002c0607000000e0000d0035001fb2970072
:101bb000afb297003fb39700cfb397000800be00c5
:101bc0000a01be00230607000000e00011003a00f1
:101bd0008fa297000508a300080032000d0037000f
:101be0006044b8006055b80098b79f00a9b79f003f
:101bf000bab79f00cbb79f00060037006000b8005f
:101c00006011b80090b79f00a1b79f00b2b79f00c6
:101c1000c3b79f001fb29700afb297003fb39700c2
:101c2000cfb397005fb09700efb097007fb19700f8
:101c30008fb997007d0607000002be000203be00b8
:101c400094b79f00a5b79f00b6b79f00c7b79f0086
:101c500079fe07000203be000002be00f0ff2f0065
:101c6000f1ff2f00f2ff2f00f3ff270000046200b6
:101c7000818462000205630083856300d8b79f00fa
:101c8000e9b79f00fab79f008bbf9f006000b800c4
:101c90000200200003ff27000040e10001c8e1002e
:101ca00002d0e10003d8e100bdfe3200efa49700ae
:101cb0008984e900d9b79f000fae97008006eb003a
:101cc0008da79f00ddaf9f006c0037001fa297001b
:101cd000afa297003fa39700cfa397001fb0970034
:101ce000afb097003fb19700cfb197009a060700b9
:101cf000f70907000004be000205be00fe0507004c
:101d0000800078000100e00006003a005fa897001c
:101d10000000e000030032008d06e800eda79f0000
:101d2000300037000fa197000200e0000c003a00dd
:101d3000dfa997000300e000090032000c01470012
:101d4000e0c2b300004978000c06e8005fb29700db
:101d50000402e900d4b79f001500200085a79f006a
:101d60000c0147000d0078000300370003c3b300e7
:101d7000035978000000e9000000e000fbff3a0092
:101d8000e0a79f000d064600e98f500003003c00cd
:101d90000003200001004000020037007005200011
:101da00001004000df9b9700f98f530006003e00c2
:101db000800078000150a0001106b100f98f50009a
:101dc00001003e007c0507008c0047008048780039
:101dd0000c06e8008d86ea005fb097000d00400019
:101de000d0b79f001fa29700afa297003fa3970014
:101df000cfa397000800be000a01be000507070038
:101e00000002be000203be001fb09700afb09700f3
:101e10003fb19700cfb19700fe0507000002be005a
:101e20000203be0094b79f00a5b79f00b6b79f00fe
:101e3000c7b79f006022b8000600200007fb230000
:101e40001fa09700afa097003fa19700cfa19700d8
:101e5000f00607000004be000205be0098a79f0020
:101e6000a9a79f00baa79f00cba79f00dfac970050
:101e70008904e900d9af9f00efa697005fad9700f6
:101e80000a00ea00ef9d97008b0f500004003d0010
:101e9000bf98970065805000800f56008bff390077
:101ea0000fa197000200e0001b003a000d00e000c7
:101eb00076003400ff9997000300e00073003400bf
:101ec0007fa297000408a30070003a008c0047002e
:101ed000e0c2b300804878000d00780002c3b30070
:101ee000826878000000e900fcff3a000c8646009a
:101ef0000c06e800dfb297000500e9000d00500075
:101f0000d0b79f00040037000c004700e1c2b300c7
:101f1000014878000c06e8000c0047000048eb0080
:101f20003f9b97008600e900010147000049eb0054
:101f30008001eb009fab97000700e00003003d002d
:101f40008703ea0097af9f001300200012002000d3
:101f50001faa9700010478005fb3970080067800fd
:101f60000a0037000104780088034700a50020001c
:101f7000110009000502d8000002be0009c3b30029
:101f800089cb42000201e9000603e9008800e9006c
:101f90000400e000f3ff3a00e10f5100f1ff3200ce
:101fa000d6b79f000d00780001024700b2c2b3000f
:101fb0000300e00001003200d2c2b300024a780000
:101fc0000101e9008200470003c7b3005f9d97004d
:101fd000f90f550001003e0003c5b30083487800a7
:101fe000820f560001003d00ec040700ffa597009a
:101ff00063806500e20f500016003a005fb0970062
:102000000084e9004240a900120034000e0078006c
:102010006afd0700800044008100e800810047005d
:102020000300370000014700926078000000e900db
:102030000fa99700820f5000faff3d0002004700f1
:102040000801780001032000f8fc07008001eb0084
:10205000d3a79f000e00780058fd07007fa29700cd
:10206000dfa19700000178008e0078004f9897005c
:10207000d5fa07004f0778004f06be004f05be0097
:102080004f04be00ef03b100000006007fa29700de
:102090000448a3009cff3a009fff3700ec874700ed
:1020a000889fbe008a9fbe008c9fbe008e1f780056
:1020b00000067800010478001807900028059000b9
:1020c00098067800cdb79f00b805900012027800fe
:1020d0009202900022039000b20390000400be0020
:1020e0000601be004f18de006011b8008000eb0052
:1020f000d0b79f00e1b79f00f2b79f0083bf9f005a
:10210000800478000900e000060032006000b8009a
:102110006011b8000402500085825800060359007f
:10212000878359000e00e000020035000d10a10069
:10213000cdb79f000900e00005003a004fb09700be
:102140000028a30002003a000038a3000200320079
:102150008a00e900010037008a007800f881570002
:10216000a2002000080078005f0307000900e000db
:1021700003003a00cfb097000128a3000800320006
:102180000000e90000814500b1c2b3000900e00091
:1021900001003200d1c2b3000149780006003700c7
:1021a0000138a300040032000000e90080804500ef
:1021b00002c2b30082487800480190000201e900a1
:1021c00000015100808045004fb297008a017800dd
:1021d0000c0078007cfa07009c0090000188a300a6
:1021e0000400320098009000810f500001003d0073
:1021f000010078004f0778004f06be004f05be0073
:102200004f04be00cf00b100000006000000060031
:102210002f04b000889fbe008a9fbe008c9fbe0026
:102220008e1f7800b09f9f00a1a79f00a37f9f00f3
:1022300011007800d0a79f0091009000f1a79f00a7
:10224000afa19700a3019000c3a79f002fa2970002
:1022500044029000a49f9f00afa297003507900012
:10226000120478009204900022059000b2059000bc
:102270006022b8006033b8000800be000a01be004a
:10228000740407000000e00003003d000bf0a20012
:10229000d0c2b300040037005fa397000628a30054
:1022a00008003200b0c2b300004f7800cfa39700ff
:1022b0008703e90087af9f0010002000e0a79f0080
:1022c0000f003700dfa097000138a300080032009c
:1022d00000c2b300004f78004fa197000201e9004f
:1022e00082af9f0013002000e3a79f000400370087
:1022f0004fa2970084af9f008002eb00e5a79f00ec
:102300000800be000a01be00c0ff0700f4ff2f0056
:10231000f5ff2f00f6ff2f00f7ff270004026000f3
:102320008582600006036100878361006000b80059
:102330000200200003ff27000020e10001a8e100c7
:1023400002b0e10003b8e10010003a002f7b9700d3
:102350008600fb001104b100efa3970007004700bf
:10236000f98f500002003e004105210001003700b6
:102370008105210009040700800521008ffc07006a
:10238000efa0970001014000140037000020e10099
:1023900001a8e10002b0e10003b8e100120036003c
:1023a0002f7997008200fb001104b100efa1970084
:1023b00003004700f98f500002003e00c1052100d4
:1023c0000100370001062100f40307000006210088
:1023d0007afc07006fa29700040140005fa29700fb
:1023e000cfa19700490237006022b8006033b800df
:1023f0000800be000a01be00160407000000e0004d
:10240000680032006000b8000200200003ff2300d3
:10241000d0af9f00e1af9f00f2af9f0083b79f0056
:102420008006eb000802be000a03be0094b79f00be
:10243000a5b79f00b6b79f00c7b79f00070037003a
:102440008d06e8000800be000a01be00d0af9f0064
:10245000e1af9f00f2af9f0083b79f006022b800fa
:1024600006002000470224005fa89700efa897000d
:102470007fa997008fb19700660507000004be0092
:102480000205be000002be000203be001fb097009e
:10249000afb097003fb19700cfb19700ed030700b1
:1024a0000000e000e6ff3d000006eb005fac970097
:1024b000efac97007fad97008fb5970025003700f0
:1024c00040ed2f00808f560019003d000c00e00009
:1024d00016003a006022b8000600200007352400ec
:1024e0001fb09700afb097003fb19700cfb19700f2
:1024f000480507000002be000203be0094b79f001b
:10250000a5b79f00b6b79f00c7b79f006022b8006d
:1025100006002000073524000800be000a01be00a6
:102520003c0507000004be000205be001c002000a0
:102530006022b80006002000470224000800be0008
:102540000a01be00840407000004be000205be00ac
:102550008d06e9000802be000a03be001fb0970006
:10256000afb097003fb19700cfb19700b903070014
:102570000000e000d2ff35000800be000a01be00e6
:10258000d0af9f00e1af9f00f2af9f0083b79f00e5
:102590001fb49700afb497003fb59700cfb5970031
:1025a000080037006022b8000600200007ff230063
:1025b000d4af9f00e5af9f00f6af9f0087b79f00a5
:1025c0008006eb00af7a97000500fb0013fc0700c4
:1025d000b07f9f007fa39700600020000600e0000e
:1025e000010035007fa0970071c6b300bf7b970044
:1025f00081cf53000a003a00ffa097000100e000dd
:10260000cb013200cb0137008d0f5000cf013c00d1
:1026100090b79f0052c6b300e2cf9f001e00370064
:10262000bf799700e3cf9f000200370064c6b30074
:10263000e4cf9f000000e80090b79f0060c6b300a1
:10264000efca970080cf520013003a000d00e0005f
:1026500008003d006000b8000200200003ff2300d6
:10266000d0af9f00e1af9f00f2af9f0083b79f0004
:102670008006eb0061c6b300e1cf9f0070c6b300d7
:102680003f799700804f5100030032009fb19700bf
:102690008d81410093b79f005faa9700efaa970032
:1026a0007fab97008fb39700d4b79f00e5b79f002b
:1026b000f6b79f0087bf9f000800be000a01be005a
:1026c00090af9f00a1af9f00b2af9f00c3af9f002c
:1026d0000006eb000802be000a03be00e49f9f0054
:1026e000f59f9f0086a79f0097a79f0031003700a6
:1026f0005fb29700efb297007fb397008fbb970050
:102700001fa89700afa897003fa99700cfa99700ef
:10271000110407006e0707000004be000205be009a
:102720007503070080027800b5a79f005fb297008d
:10273000efb297007fb397008fbb97000800be00f1
:102740000a01be00b30407001faa9700afaa9700b2
:102750003fab9700cfab9700ae0307000002be006f
:102760000203be0007f0a20094af9f00a5af9f0038
:10277000b6af9f00c7af9f006022b80006002000e0
:10278000470224005fb09700efb097007fb1970039
:102790008fb99700f00307000002be000203be00dd
:1027a000d4b79f00e5b79f00f6b79f0087bf9f0093
:1027b0000c06e8009fb29700850f5600ccff35004d
:1027c0006f9c9700ff9c97000fa597009fa597000f
:1027d0006022b80006002000470124005fb0970087
:1027e000efb097007fb197008fb997008904070079
:1027f0000002be000203be00d4b79f00e5b79f00f1
:10280000f6b79f0087bf9f001fa89700afa897004b
:102810003fa99700cfa997000e0307000000e00032
:102820000f0035005fb29700efb297007fb39700bb
:102830008fbb97001fa89700afa897003fa99700ec
:10284000cfa99700030307000000e00011003a0041
:10285000bfa297000508a300080032000d00370052
:102860006000b8006011b800d0b79f00e1b79f00ca
:10287000f2b79f0083bf9f00060037006022b800b8
:102880006033b800d4b79f00e5b79f00f6b79f004c
:1028900087bf9f005fb29700efb297007fb39700aa
:1028a0008fbb97000800be000a01be005f0307004f
:1028b0000002be000203be0094af9f00a5af9f00c0
:1028c000b6af9f00c7af9f006022b800060020008f
:1028d000470224005fa89700efa897007fa9970000
:1028e0008fb197004b0407000004be000205be0034
:1028f0000002be000203be001fa89700afa8970009
:102900003fa99700cfa99700d70207000000e00079
:10291000090035008d06e80060c6b300efca9700d5
:1029200080cf520008003a001fb397000603e8006a
:1029300096b79f00110037005fac9700efac97008f
:102940007fad97008fb5970050c6b3006fc9970051
:10295000804f510009003a000802be000a03be0081
:10296000d4b79f00e5b79f00f6b79f0087bf9f00d1
:102970008002eb00d5af9f00070037000800be00c3
:102980000a01be00d0b79f00e1b79f00f2b79f00d9
:1029900083bf9f00ddaf9f006fa697000001eb0093
:1029a000b2a79f00c29f9f00e29f9f009d9f9f0034
:1029b000680037005fb29700efb297007fb39700cf
:1029c0008fbb97001fa89700afa897003fa997005b
:1029d000cfa9970060030700bd0607000004be00f2
:1029e0000205be00c4020700e90f500001003400d8
:1029f00090002000dfa197000348a3000c003a00dc
:102a00000000e0000a003a0071c6b3003f7a970068
:102a1000814f520006003a00dfaa97000500e0004f
:102a200003003d003fa397008606e8002100370021
:102a3000cf9b97000700e0000c003a00dfa897004a
:102a40000100e00009003d000c014700e1c2b300b5
:102a5000014978000c06e8000fa997000201e9007f
:102a600082af9f0013002000c39f9f000c0147000e
:102a7000bfa697000300370001c3b30001597800d7
:102a80008d06e9000d00e000fbff3a003fa2970031
:102a9000040646008c00470005c3b300854840008b
:102aa0000c06e8000480ea000fab97000003430027
:102ab00086af9f005fb29700efb297007fb3970099
:102ac0008fbb97000800be000a01be00d1030700bb
:102ad0001faa9700afaa97003fab9700cfab970014
:102ae000cc0207000002be000203be0007f0a200f5
:102af00094af9f00a5af9f00b6af9f00c7af9f00e8
:102b00006022b80006002000470224005fb0970052
:102b1000efb097007fb197008fb997000e030700c1
:102b20000002be000203be00d4b79f00e5b79f00bd
:102b3000f6b79f0087bf9f00dfaa97008502e900d4
:102b4000d5af9f006f9b97000603e800e69f9f00ac
:102b5000bda79f00ef9b97001fb09700808f530089
:102b600005003d00afa097004100900065005000b7
:102b7000800f56008fff39009f9e97004f99970056
:102b80000200e00007003a00dfa197000348a3001d
:102b9000040032000c004700e1c2b3000148780095
:102ba0000c06e8000c0047000048eb0051c6b300db
:102bb0006fca9700814f520036003a00af9a9700d3
:102bc0008500e900010147000049eb008001eb00ae
:102bd0000d00e00002003d008d06ea001300200019
:102be00022002000810378008faa9700000478005b
:102bf0000b0037008103780007034700a400200082
:102c0000110009008406d8000102780080067800cf
:102c100000c3b300004b42000201e9008502e90055
:102c20008700e9000d00e000f2ff3a000200e0003a
:102c3000f0ff3c0085af9f000800780001024700cc
:102c4000b2c2b3000300e00001003200d2c2b30000
:102c5000024a78000101e90082004700af7997003d
:102c60000302fb001404b10053c6b300f90f520075
:102c700001003e0053c4b300834878000faa9700b8
:102c80000482e90084af9f00820f560001003d00de
:102c9000c2010700dfa2970063806200e20f5000cc
:102ca00015003a000fab97000600e0001200340058
:102cb0000e00780041fa0700060037008fab97003e
:102cc000870047008080400000014700924878005c
:102cd0000000e900efa09700810f5000f7ff3d00d2
:102ce000010047000fa9970001032000cff907005a
:102cf0000001eb00c2a79f000e0078002ffa07002a
:102d00005fa29700cfa19700000178008e007800a5
:102d10003f989700acf707004f0778004f06be00ba
:102d20004f05be004f04be002f04b1000000060096
:102d300010002000e48f460033fe3d0090b79f0056
:102d400053c6b300e3cf9f0053fe37000d00e000f1
:102d500036fe350090b79f0046fe37000200fa00ad
:102d6000889fbe008a9fbe0080057800010478001d
:102d70000200780018019000280590009800780063
:102d8000b1bf9f00b80490000200e00002003500cf
:102d90000110a100b1bf9f00ea815700820020000e
:102da0008a007800100278009002900020039000c2
:102db000b0039000080078004b0007003fb997006f
:102dc000f0006100040032000000e900808044004f
:102dd00002c3b300824878003fb99700e800610061
:102de000040032000000e9008080440002c2b30009
:102df00082487800480190000201e900000151007a
:102e0000808044003fba97008a0178000b00780068
:102e10006df707009b0090000188a30004003200ba
:102e200098009000810f500001003d0001007800e3
:102e30004f05be004f04be000080fa0000000600ef
:102e4000ea874700889fbe008a9fbe008e1f7800d9
:102e500000047800030078007287570084e226009f
:102e600055c72600049fbe00c3962200030f7800ba
:102e70006c875700004feb0011059000a1049000f3
:102e8000910578000200e00002003200020778009d
:102e900001003700728757000000e00002003a008e
:102ea0000e007800c5f907000a00e00003003500b5
:102eb0008a0f5000010036000a0078000b027800eb
:102ec00089017800000178008e0078000800780001
:102ed0003df707004f0778004f05be004f04be00c6
:102ee000af00b10000000600f4874700889fbe00d5
:102ef0008a9fbe008c9fbe008e1f78000605be0014
:102f00000404be0081bf9f0082b79f00f3b79f00fb
:102f1000b0009000e1b79f001301780092b79f00c6
:102f200090069000400090000000e9000006780044
:102f30000d00e00001003d001d002000efb19700f2
:102f4000008041000048eb001e0020001f003700f9
:102f50000c06e9000fb09700cf80de006109b900d0
:102f6000a0b79f00b1b79f00c2b79f00d3b79f0023
:102f70000203be000002be000800be000a01be003f
:102f80006704070000077800efb097000c8040004e
:102f900003c3b300034847008d06e9000fb897004c
:102fa0000000e90080bf9f002fb29700bfb29700da
:102fb0004fb39700dfb397000800be000a01be00c0
:102fc000500407000205be000004be000c00e00033
:102fd0000d003400e00f5400e08f5c00e00f5d0056
:102fe000e08f5d00daff3a000d00e000d8ff3c0002
:102ff0008fb897000100e000030034001fb1970074
:103000000218a300d2ff3a000e00e00002003a00ce
:10301000ffb197001340a1000c0078004f07780023
:103020004f06be004f05be004f04be004f01b10069
:10303000000006000200fa00889fbe008a9fbe00c2
:103040000005780001047800020078001801900063
:10305000a804900098007800b1bf9f00b8059000c8
:103060000200e000020035000110a100b1bf9f0086
:10307000ea815700a2002000890078001002780041
:103080009002900020039000b003900008007800a8
:1030900095ff0700480190000201e900000151007e
:1030a000808045003fba9700890178000a007800c7
:1030b000c5f607009a0090000188a30004003200c2
:1030c00098009000810f500001003d000100780041
:1030d0004f05be004f04be000080fa00000006004d
:1030e000fa874700889fbe008a9fbe008c9fbe0063
:1030f0008e1f780080047800010478008205780033
:10310000180190002805900018077800b80090007a
:103110000200e000020035000e10a100010037009f
:103120001200200070006700e0b79f000b00320023
:103130001b0278009b0290002b039000bb039000c1
:10314000e00f5200e08f5a00e00f5b00e08f5b0061
:10315000020032008a86e900010037008a06780002
:10316000e8026700f5b79f00010032008d06e90014
:103170001b0278009b0290002b039000bb03900081
:10318000e4af9f00f5af9f0086b79f0097b79f0001
:10319000480690000c06e9000c8040000048eb0057
:1031a000efb297007fb2970089037800810478001e
:1031b000d8af9f00020478008bbf9f008a0578007b
:1031c000034578002b0037000c06e9006fab970031
:1031d0006f006300e90f500002003c000003b000e4
:1031e000010037007005b0000a03fb001604b100af
:1031f000f90f53000c003e00000378000650a000b9
:103200001606b100f90f530007003e00b4b79f0047
:10321000a5b79f00c7b79f0067000700cfb397000f
:10322000afb297003fb297000c834400004b780088
:103230000804e9008d06e9006fa89700ffa8970031
:103240000fb197009fb19700460020008301d10085
:103250000281d3008180d3000080d3000603e900ff
:10326000faff3a00e0af9f00f1af9f0082b79f00e6
:1032700093b79f00e10f56000f0034006fa897002e
:10328000ffa897000fb197009fb19700e00f500083
:10329000e08f5800e00f5900e08f5900caff3a0054
:1032a0000800e000c8ff3c000d00e0000200340010
:1032b0000e18a300c4ff3a0089007800f4b79f00fd
:1032c000870478005fac97008a4178000b0578008e
:1032d0008fbd97000500e000140032001b0278004b
:1032e0009b0290002b039000bb039000e4af9f0073
:1032f000f5af9f0086b79f0097b79f00e00f520081
:10330000e08f5a00e00f5b00e08f5b0007003200a7
:103310000c06e9000c804000034878000c06e90028
:103320000c80400002c3b30002487800ffb297004f
:103330000500e000040032000c06e9000c804000ab
:1033400002c2b30002487800480190000201e9007f
:103350000c0151008c8040000e0278008a01780038
:103360000900780018f60700990090000188a30072
:103370000400320098009000810f500001003d00d1
:10338000010078004f0778004f06be004f05be00d1
:103390004f04be00af01b10000000600881f780096
:1033a00000047800080078000a0007000800780090
:1033b0004f04780000000600f1f92f0080804000e3
:1033c000f98f500001003e00f005b2000000060039
:1033d000f9ff370001017800800178000082680061
:1033e0000408a300050032001300370032407800c3
:1033f000805978000004e0001400320003027800d5
:103400000208a300f9ff3a0003007800010037002a
:103410000318780082007800b2017800f5ef2f00e1
:10342000838242000382ea000482620005082800c9
:1034300005026200f6ff3200000278003141780098
:10344000025878000204e000fbff3a000400780014
:10345000000006008f1fd100930307008f87e9004b
:103460000000e00000000600809feb008e030700d4
:103470008f87e9000000e00000000600810378006b
:10348000490007000001be006000b8000478a300f6
:1034900013003a006220e10015003e000d003900e3
:1034a0008301d1000281d3008180d3008301d10048
:1034b0000281d3008180d3008301d1000281d30037
:1034c0008180d3000538b000c42add00f300b200cb
:1034d0008381720007f0a70003f0a000000006003f
:1034e00083ff2700020020006110b900f9ff3700b8
:1034f00003ff2700f7ff37001400fa00889fbe0083
:103500008a9fbe008c9fbe000004be000205be0064
:10351000680047000a90be000890be009d030700a7
:103520000070a7000bf0a100304320009e02900025
:1035300080825200b0fe2f000028e10011003d0003
:10354000b0fc2f000028e100150034001e09900097
:103550008e0890007e0090000501b0000201d100ad
:103560008180d3000080d3008502e800fbff3a0091
:103570000b00e000c2033b0060001000e080180078
:10358000bf033700f0ff2f00f1ff27000b00e00022
:10359000bb033b000100280000002000b8033700f7
:1035a0006000b800b6033700c70ade00f107b200ba
:1035b000f50fb20008003200e1cf420002003200f5
:1035c0000170a00024000500810f7000010032008e
:1035d0000408050044000500810f700002003a0055
:1035e000140005008502e9000000400081c0480089
:1035f000fcff3b000170a00024000500020ab90096
:10360000001bb9000200b8008100420081004300a5
:10361000000006008c9fbe008a9fbe00889fbe00ef
:10362000ca0107000bf0a200040037008c9fbe0007
:103630008a9fbe00889fbe00c40107000c48e100bd
:103640000b003a000c40e100020032008b01070041
:10365000400037008b066d003e0032000af0a100ea
:10366000f3012000f2ff2f006110b900390037008c
:103670000c40e100370032000940e1000100360053
:103680007e0107008a856d00cf5dde000b057500a9
:103690000006eb008804fd0089045400010032009c
:1036a0007d0107000a04e00011003a000800e00074
:1036b00028003200040040008580480006014900cf
:1036c000878149000358a300180032008301d1000c
:1036d0000281d3008180d3000080d3000c86d30008
:1036e00001003900610676000804e8001800370080
:1036f0000400500085805800060159008781590058
:10370000060031000af0a2000c06ea006000180072
:10371000e080180060011900e081190003003a0000
:103720000004eb000005eb000a0037000348a3008b
:1037300007003a000c06460000004800818048005f
:1037400002014900838149000804e900f7ff3700be
:10375000af013700c90137008c9fbe008a9fbe00b1
:10376000889fbe00790107000b056d000940e1004c
:103770000a003a000800e000020032000c40e100bc
:1037800006003a000af0a1000c047800f3012000c2
:10379000f2ff2f006110b9009d0037000c40e100de
:1037a0009b0032000800e000990032000c48e10064
:1037b00002003a000004eb00030037000900e000bb
:1037c00004003a000c0478006000b8006011b800f2
:1037d0008f0037000348a30006003a0000004000b5
:1037e0008180480002014900838149000804e90002
:1037f000f8ff37000748a30006003a000402420021
:1038000085824a0006034b0087834b008904e90048
:10381000f8ff3700fd3f20008d8454000904540058
:103820008a1f7800881f78000004780081047800df
:1038300002057800830578006000b8006011b800c8
:103840000d042000050037000804440089844c0062
:103850000a054d008b854d0008003100040454001a
:1038600085845c0006055d0087855d008381d2004c
:103870008d06d300f4ff3b0007003700040444002a
:1038800085844c0006054d0087854d008381d2005c
:103890008d06d300ecff3b000804440089844c00f3
:1038a0000a054d008b854d000800310004045400ca
:1038b00085845c0006055d0087855d000281d2007d
:1038c0008d06d300f4ff3b000700370004044400da
:1038d00085844c0006054d0087854d000281d2008d
:1038e0008d06d300ecff3b000804440089844c00a3
:1038f0000a054d008b854d0008003100040454007a
:1039000085845c0006055d0087855d008180d200ae
:103910008d06d300f4ff3b00070037000404440089
:1039200085844c0006054d0087854d008180d200be
:103930008d06d300ecff3b000804440089844c0052
:103940000a054d008b854d00080031000404540029
:1039500085845c0006055d0087855d000080d200df
:103960008d06d300f4ff3b00070037000404440039
:1039700085844c0006054d0087854d000080d200ef
:103980008d06d300ecff3b000b00e00004003d007f
:103990000404440085844c0006054d0087854d00d5
:1039a0000006eb008301d1000281d3008180d300a7
:1039b0000080d3000c86d3008301d1000281d300a4
:1039c0008180d3000080d3000c86d300890474006a
:1039d0008b0575008b84740001003200610676004f
:1039e0004f0478004f0578000348a30007003a0011
:1039f0000c06460000004800818048000201490092
:103a0000838149000804e900f7ff3700000137000f
:103a10001a0137008c9fbe008a9fbe00889fbe009f
:103a2000ca0007000b056d008a0578000c40e10014
:103a300008003a000900e00082003a000af0a10004
:103a40000c047800f3012000f2ff2f006110b90090
:103a50007c0037000c48e10004003a0087000700b2
:103a60000900e00077003a00f4ff37000800e000aa
:103a7000740032000900e00002003a007f000700f5
:103a800070003700ed3f20008d845400090444008d
:103a90008a1f7800881f7800871f7800861f7800ab
:103aa000851f7800841f7800cb19dd00c515de0066
:103ab0008b8571004b11dd00450dde000a0571009c
:103ac000cb08dd00c504de00898470004b04dd00f6
:103ad0000440b8000546b8008c80400060814e006c
:103ae000044eb8008c8040000d0149008001eb00bd
:103af0000318ad000456b8000c0141008d81490047
:103b00000002eb000420ad000646b8000c014100a5
:103b10008d81490060024a00054eb8000c01410049
:103b20008d81490060024a000556b8008c81410031
:103b30000d024a008002eb000528ad000746b800e0
:103b40008c8141000d024a00e0824a00064eb80016
:103b50008c8141000d024a00e0824a004f06780045
:103b60000c5eb8008c8141000d024a00e0824a00e0
:103b70000656b8000c0242008d824a000003eb009a
:103b80000630ad00074eb8000c0242008d824a009c
:103b900060034b004f0678000c5eb8000c02420038
:103ba0008d824a0060034b000756b8008c824200a9
:103bb0000d034b008003eb000738ad004f06780083
:103bc0000c5eb8008c8242000d034b00e0834b007a
:103bd0004f0678000c5eb8000c0343008d834b0049
:103be0004f0478004f0578000748a3000a003a0008
:103bf00000004000818048000201490083814900a3
:103c000004024a0085824a0006034b0087834b006a
:103c10000804e900f4ff3700030678008080700094
:103c20008280700001003200610676008701780012
:103c30000601780085007800040078008804780088
:103c4000780037008d0037008c06460002003a00ed
:103c50000000a6000000060060004800e080480068
:103c600060014900e08149000350a6000000060001
:103c70008301d1000804e800000006000002fd00f6
:103c80008102fd000203fd008303fd008804fd00a6
:103c90008a05fd00000006007048e1001a003900a6
:103ca0007d0320000d48e1000a0039008105700005
:103cb000830671008c8575008d8575000006eb000c
:103cc0001cd8e700610676006000b8006011b800fb
:103cd000000006007048e1000b0039008c057800f8
:103ce0000006780001007800820078000301780067
:103cf0008001eb0013d8e70061067600f0845400e1
:103d0000f4ff3a00000006006160e1000c48ad00dd
:103d1000f08514008b06dd000966de000d067600d6
:103d20008b0edd000900de000d0070008b16dd003b
:103d30008908de008d8070008b1edd000911de0019
:103d40000d0171008919de00000006000d00280039
:103d5000fc7f20000d856100441cde00ef816100c6
:103d60000c046400010032000340a0008d85630054
:103d7000c43cde00ef8363008c84640001003200e9
:103d80000740a0000c40e10006003a00ef86610009
:103d90008286760081867600808676000100320079
:103da000180037000c48e10007003a00ef86630076
:103db000868676008586760084867600020032004c
:103dc000aeff07000f0037000348a30005003a00cc
:103dd00081067000828676008386760001003200bc
:103de0000804e8000748a30005003a0085067200b1
:103df0008686760087867600010032008904e80016
:103e000000000600cf047800cf0578001b003700c3
:103e100000027800810278000203780083037800b2
:103e2000880478000cf0a70087ff0700fd7f2000c2
:103e30000d40e100040035000d0478006000b8007a
:103e40006011b8000d0037000800e0000b003c00d6
:103e5000040078008500780006017800870178006a
:103e6000e18414008cff07000cf0a70076ff070028
:103e70000004eb000340a7000804e8004444dd0010
:103e80006fc56100880175004f04be004f05be007c
:103e90004f06be0000000600889fbe008a9fbe003d
:103ea00030044200b0844a0030054b0090854b003e
:103eb0006000b1000898be000a90be000440e10016
:103ec00005c8e10006d0e10007d8e100020031009a
:103ed000680040001008e8004f05be004f04be0017
:103ee00000000600889fbe008a9fbe001004780074
:103ef0009004900020059000b00590000418540034
:103f000005985c0006185d0007985d001100200010
:103f10000440e10005c8e10006d0e10007d8e10057
:103f2000010039008000eb00108810004f05be0032
:103f30004f04be00000006001200fa00889fbe0079
:103f40008a9fbe008c9fbe00e0b79f00f1b79f0024
:103f500082bf9f0093bf9f000605be000404be0001
:103f60000000eb00d0b79f00c0b79f00b0b79f0024
:103f7000a0b79f0090b79f00000678005fb1970040
:103f8000cfb09700820141003fb097000200e000ef
:103f900004003d00370007007e805700beff070089
:103fa00003003700330007007e805700cdff070075
:103fb000dfb697000d00e0000c0035006fb29700ef
:103fc000ffb297000fbb97009fbb97001000200027
:103fd000010020006011b8000002720081827200ae
:103fe00002037300838373001b0007000c06e800c4
:103ff00001042000810f5600e0ff3a000d00e000b0
:1040000004003d000802be000a03be007e80570087
:10401000a1ff07005fa897000000e00005003a003c
:104020001fb29700afb297003fb39700cfb397008e
:10403000090007006fb09700ffb097000fb9970015
:104040009fb997004f06be004f05be004f04be004b
:104050000080fa00000006000100070000000600d2
:10406000a4b79f00b5b79f00c6b79f00d7b79f0002
:10407000000006004f09de0082817100b3b79f0087
:104080004f01de008180400082807000a1b79f0058
:104090008fb097004f09de00000040000200700062
:1040a00090b79f007fa897004f01de0081804000fd
:1040b0008280700081b79f000d0007004f3ade003c
:1040c0000000400004007000f0af9f0008000700ef
:1040d0000402420085824a0006034b0087834b009e
:1040e000dfff07000802be000a03be000000060052
:1040f0002fb29700bfb297004fb39700dfb397007e
:1041000000000600881f780018002000881f780033
:1041100089ff07008f87e9004f0478000000060040
:10412000801feb0084ff07008f87e9000000060076
:10413000889fbe008a9fbe00e00f5000e08f5800ad
:10414000e00f5900e08f59000c003d006044b800ba
:104150006055b8000000540081805c0002015d00e1
:1041600083815d00180020001500070008003d0055
:10417000180007000004eb00050037000004eb0006
:104180000f00070002003d00120007001800200089
:10419000dcff07000800e000060032006022b800e3
:1041a0006033b8000000520081805a0002015b00b9
:1041b00083815b004f05be004f04be000000060077
:1041c000e00f5200e08f5a00e00f5b00e08f5b00d1
:1041d000000006006044b8006055b80004025400b6
:1041e00085825c0006035d0087835d000000060099
:1041f000889fbe008a9fbe008c1f7800e00f500091
:10420000e08f5800e00f5900e08f59000d003d008d
:104210006044b8006055b8000000540081805c0024
:1042200002015d0083815d001c0020000820e10088
:1042300009a8e1000ab0e1000bb8e1000d003d0063
:10424000080037000006eb00e00f5200e08f5a0034
:10425000e00f5b00e08f5b0006003d006044b800ab
:104260006055b8000402540085825c0006035d00be
:1042700087835d00aaff07000c00e0000600320003
:104280006022b8006033b8000000520081805a00fc
:1042900002015b0083815b004f0678004f05be0082
:1042a0004f04be0000000600889fbe008a9fbe002b
:1042b0008c9fbe000404be000605be00809fbe00a9
:1042c000829fbe0021000700040678000800be009f
:1042d0000a01be001d000700840678004f03be00df
:1042e0004f02be008d4f76007fb097001300330061
:1042f000f0ff2f008b8f6b0006003b000d06660061
:104300000c00a7000a00370007f0a60010002000ec
:104310000a003700880f5200898f5a008a0f5b000d
:104320008b8f5b00030039001000200001003e006d
:104330000000200007f0a7000000ea004f06be00c2
:104340004f05be004f04be000000060005ff270019
:1043500005826100070032000428e10001003200fc
:10436000240005000600070001003a004400050093
:104370000408050002000700f9ff3a0014000500d8
:104380006f826100810270008502710085027200f7
:10439000000006005002be00e40050005003be00c2
:1043a0004439de00f700b200f37f20000301610012
:1043b000090032000218e10016003a00850172007f
:1043c00083017300838173000008200015003a0008
:1043d0004000200013003700850172008301730044
:1043e0008381730005003a0004a8be0006a8be0041
:1043f000100020000b0037000201e9000402420017
:1044000085824a0006034b0087834b000748a300c0
:10441000f9ff32000740a00004a8be0006a8be00b5
:104420002000200080009800920098000000060004
:10443000680447000294be000094be00fc044700dc
:104440008694be008494be0009007800d1ff070066
:1044500008007800cfff070099007800814f7000b6
:104460000b003b000800be000a0007004f00b1002f
:1044700003003700f3ff2700f2ff2f006110b9009f
:104480004f06be004f05be004f04be000080fa007c
:1044900000000600e48240001078a300070032000c
:1044a000640240001178a3003400be001401be0075
:1044b000050032000330a700000006003500780038
:1044c000b50078001501be000330a0000000060012
:1044d0001800fa00889fbe008a9fbe008c1f7800db
:1044e0000004be000205be000802be000a03be00b2
:1044f000443ade00f07f20000006620020432000e6
:10450000800f560067003c006022b8006033b8009e
:104510000800be00cffb07000000e0006100320091
:104520000802be000a03be00b4b79f00c5b79f00d3
:10453000d6b79f00e7b79f00e00f5200e08f5a0008
:10454000e00f5b00e08f5b000b003d006022b800d5
:1045500006002000073324000800be000a01be0048
:104560002cfc07006022b80006002000073324005e
:104570002efc07000a0037006022b8000600200069
:10458000073324000800be000a01be0027fc070014
:104590006022b80006002000073324001dfc07003d
:1045a0000802be000a03be001afc07000002be009b
:1045b0000203be00f4b79f0085bf9f0096bf9f0017
:1045c000a7bf9f00e03f2000800f560017003c006f
:1045d0007fb097008fb897001fb99700afb99700c9
:1045e000f0af9f0081b79f0092b79f00a3b79f00d5
:1045f0006044b8006055b8003fb29700cfb2970052
:104600005fb39700efb39700e00f5200e08f5a00be
:10461000e00f5b00e08f5b0022003d006044b800cb
:104620000a0020000bff2b001e0037006022b8009c
:104630006033b8007fb097008fb897001fb997001c
:10464000afb9970088fb07000000e0000c003400c1
:104650007fb297008fba97001fbb9700afbb970040
:104660000800be000a01be00f0fb07006022b8008f
:104670000600200007ff2300e6fb070007003700c5
:104680007fb297008fba97001fbb9700afbb970010
:104690000800be000a01be00e4fb07000004be00e3
:1046a0000205be000800be000a01be004f067800e9
:1046b0004f05be004f04be000080fa000000060057
:020000040000fa
:1046c000536500006e7300006f72000020520000fe
:1046d00065610000646900006e6700003a00000038
:1046e000566100006c3a00002025000064000000c4
:020000040000fa
:1046f0000000fa0041e2a900113a8000f00b20000e
:1047000000816000600420007105200023742000f7
:10471000804978008149780082497800103a800009
:10472000000178000260a0006004200071052000f4
:1047300023742000804978008149780082497800fc
:104740004222ef0042a2a8004342a80042c2a900b0
:104750004302a8004322a80011128000c0ff2f00ce
:10476000008060000010a00010128800111280006c
:1047700030fe2f00008060008001b300101288001e
:104780004422ef004022ef0041e2a8000080fa003e
:10479000000006000400fa0010079800030037002c
:1047a00040128000000f78001e0078000012800088
:1047b000610060000000e000f9ff3a009e009000f8
:1047c00041128800000000000012800061006000bb
:1047d0000000e000fcff320040128000000f780073
:1047e0001e0078000080fa00000006000000fa00b9
:1047f0001e0ea900100ea900140ea80010eea900ac
:10480000110ea9000080fa00000006000200fa0064
:10481000000f7800140ea9001000200001002000f5
:10482000b80207001e0078004600dd00d9ff07002f
:104830001000200001002000b2020700140ea800a2
:10484000800b200001002000ae0207000080fa006b
:10485000000006000000fa00e4ff0700a4ff0700c4
:1048600000ec2c0021002000a6020700800320009d
:10487000e6ff07000045200001002000a10207001c
:1048800080002000e1ff070000452000010020001b
:104890009c02070010002000dcff070000592100e7
:1048a000010020009702070060002000d7ff0700ea
:1048b0000045200001002000920207002000200097
:1048c000d2ff070000e62000010020008d02070053
:1048d000c0002000cdff0700003f220001002000a3
:1048e000880207000080fa00000006000000fa00bd
:1048f00010002000c5ff0700005921000100200022
:10490000800207000080fa00000006000400fa00a0
:1049100020479800314798002e4090000004e000a6
:104920000200320000c4b300010037000040eb0079
:10493000be409000efc06000014f40001e40780074
:104940000074a0000080fb00b0ff070000452000bd
:10495000010020006b0207000080fa000000060042
:104960000200fa00004f78001e4078000080fb0033
:104970000090a000a5ff07000080fa0000000600dc
:104980000200fa00000f7800060037001e007800d1
:10499000104078000080fb000090a0001e0fe8008f
:1049a0009aff07001e007800104078000004e00025
:1049b000f6ff3a000080fa00000006001800fa0036
:1049c00068005700300f9800be0890006400470050
:1049d000810178004eb99700110120007fef070098
:1049e000000f78001e007800f00f50000200340025
:1049f00000012000000f78000000eb001007980075
:104a0000090037001e009000640040006e407800ee
:104a10000080fb000090a0007cff07001e009000bb
:104a20000000e800100798001e0090009e0f500044
:104a3000f4ff35009e00780011079800050037004c
:104a40000022200071ff07001e0090000000e80017
:104a5000100798001e009000ef0f5000f8ff340080
:104a60000080fa00000006000200fa00000f780043
:104a70009eff07008040eb000040eb00a3ff070013
:104a80001e007800beff07000080fa00000006004c
:104a90000200fa00000f78008040eb0010c0b30065
:104aa0009aff07001e007800b5ff07000080fa009b
:104ab000000006001800fa0068005700300f980048
:104ac000be08900064004700810178004eb997004d
:104ad0001101200041ef0700000f78001e00780050
:104ae000f00f50000200340000012000000f780099
:104af0008040eb000040eb0084ff07000000eb006b
:104b000010079800090037001e0090006400400064
:104b10006e4078000080fb000090a0003bff070083
:104b20001e0090000000e800100798001e00900092
:104b30009e0f5000f4ff35009e007800110798008a
:104b4000050037000022200030ff07001e00900003
:104b50000000e800100798001e009000ef0f5000c2
:104b6000f8ff34000080fa00000006001800fa0088
:104b700068005700300f9800be089000640047009e
:104b8000810178004eb997001101200013ef070052
:104b9000000f78001e007800f00f50000200340073
:104ba00000012000000f78008040eb0010c0b3002f
:104bb00056ff07000000eb001007980009003700bf
:104bc0001e009000640040006e4078000080fb00f2
:104bd0000090a0000dff07001e0090000000e800fc
:104be000100798001e0090009e0f5000f4ff350043
:104bf0009e00780011079800050037000022200071
:104c000002ff07001e0090000000e8001007980057
:104c10001e009000ef0f5000f8ff34000080fa00f3
:104c2000000006000000fa006077200010128800e3
:104c30001000200020128800c00028000012880008
:104c40000080fa00000006000400fa00000f78005f
:104c50001107980000000000001280006200600050
:104c60000000e000fcff3a001e0078001000780011
:104c700040128800000000000112800000022000a5
:104c8000008060000000e000fbff3a001e00900082
:104c900041128000010878000080fa000000060040
:104ca0001800fa00100f9800210f9800320f98009a
:104cb0000000eb00000f78000000eb0010079800e8
:104cc0000000eb00700798000000eb00000f980058
:104cd00020002000600798002e0890000000d100fe
:104ce000200f98001e0890000000e00005003a0028
:104cf0000000eb0050079800700047002007980064
:104d000004003700ee009000510798009e089000c4
:104d1000210798003e0890000000e00005003a00de
:104d20000000eb00400798006e0047003007980035
:104d300005003700ee00900041079800be08900083
:104d4000310798000000000000128000620060003f
:104d50000000e000fcff3a001b003700001280005a
:104d6000620060000000e00008003a002e009000a1
:104d70001000780040128800ae0090005e009000a5
:104d800000804000200798001e0fe80001128000fc
:104d900000022000008060000000e0000a003a00ed
:104da0003e0090004112800001087800be00900093
:104db0004e00900000804000300798001e009000d8
:104dc0000000e800100798002e0890009e00780070
:104dd000808f5000e1ff39000f0037000112800082
:104de00000022000008060000000e0000a003a009d
:104df0003e0090004112800001087800be00900043
:104e00004e00900000804000300798001e00900087
:104e10000000e800100798009e0090002e08900007
:104e2000808f5000edff39001e0078000080fa00ee
:104e3000000006000400fa00100798008e007800b9
:104e40000e80e80080ff07001e0078000080fa0056
:104e5000000006000600fa00000f78001107980015
:104e600022079800ae0090001e0078000101780033
:104e70009e0090008aff07000080fa0000000600f4
:104e80000000fa00001280000080fa000000060016
:104e90000000fa00003a80000080fa0000000600de
:104ea0000200fa00faff0700000f78001e007800e9
:104eb000240007000004e000020032000000280087
:104ec000710007001e0078002a0007000004e000bf
:104ed00002003200000024006b0007001e00780072
:104ee000320007000004e000020032000020200031
:104ef000650007001e0078003a0007000004e0008b
:104f000002003200000820005f0007001e00780049
:104f1000420007000004e00002003200000420000c
:104f2000590007001e0078004a0007000004e00056
:104f30000200320000012000530007000080fa0048
:104f4000000006000400fa00100798000040eb0083
:104f5000004f78001e0090000000e00002003d00bd
:104f600010c0b300004f78001e4078000080fa00a7
:104f7000000006000400fa00100798000040eb0053
:104f8000004f78009e009000000024000080600028
:104f90000000e0000200320010c0b300004f7800b3
:104fa0001e4078000080fa00000006000400fa00ad
:104fb000100798000040eb00004f78009e00900022
:104fc00000202000008060000000e00002003200ad
:104fd00010c0b300004f78001e4078000080fa0037
:104fe000000006000400fa00100798000040eb00e3
:104ff000004f78009e0090000008200000806000b4
:105000000000e0000200320010c0b300004f780042
:105010001e4078000080fa00000006000400fa003c
:10502000100798000040eb00004f78009e009000b1
:1050300000042000008060000000e0000200320058
:1050400010c0b300004f78001e4078000080fa00c6
:10505000000006000400fa00100798000040eb0072
:10506000004f78001e009000700060000000e0001b
:105070000200320010c0b300004f78001e407800dc
:105080000080fa00000006000200fa00000f78001d
:105090009e80ea00003a800000806000003a8800ac
:1050a0000080fa00000006000000fa004027ef0030
:0850b0000080fa000000060078
:020000040000fa
:1050b800061000002000000080000000041000001e
:1050c8000200000082000000ffff00000010000046
:1050d80004000000800000006410000002000000ce
:1050e80080000000261000001e0000008200000062
:1050f800286e69006c29000025006800076c09000b
:105108004c836a009074a0007ac000008068880010
:1051180000846c0082008100441000001000000030
:1051280082000000494e460000696e0066004e008d
:10513800414e00006e616e00000000005410000037
:105148001000000082000000494e460000696e0011
:1051580066004e00414e00006e616e0000000000c7
:045168000000000043
:020000040000fa
:10516c000000fa0000142300203a88004827ef00c2
:10517c004e27ef0020032000303a88006027ef0014
:10518c006227ef006427ef006627ef006c27ef0023
:10519c007200200080072000a10920003374200039
:1051ac008049780081497800824978000001eb0041
:1051bc0060042000710520002374200080497800d1
:1051cc0081497800824978000080fa0000000600ce
:1051dc000200fa00310007009bfd070000362a0090
:1051ec001efe07000000eb00000f78001e0fe80009
:1051fc00f07022009e007800808f50000200340076
:10520c000000eb00000f78009e1f780000372a008a
:10521c00801f780052fe0700e487570000d8290051
:10522c005100200034000700f0ff37000000fa00a6
:10523c00042eef00142eef00700120000070880087
:10524c00e0e72f00807088000c2eef001c2eef0082
:10525c000a2eef001a2eef00062eef00162eef008e
:10526c00300120007070880020002000f070880051
:10527c000080fa00000006000200fa00000f78001f
:10528c0021028000200f2000008060001e007000b2
:10529c00200288000080fa00000006000000fa00de
:1052ac00e2ff07002a000700adff07005afe0700c7
:1052bc0000022000f0ff07000080fa00000006004a
:1052cc000200fa00000f78009e0078002180880010
:1052dc000000fe000080fa00000006000000fa004a
:1052ec006000210080077800e001210000018800a7
:0852fc000080fa00000006002a
:020000040000fa
:10530400f03fb1000180b10006003500ee03090052
:1053140000000000403fb1000180b100fbff3d00f0
:105324001000b000203fb0000200350000800900ea
:0853340000000000000006006b
:020000040000fa
:10533c00809fbe00ec805700310078000080880010
:10534c001100780002f0b7004f00be00000006000c
:0c535c000000fa000080fa0000000600cb
:020000040000fa
:020000040002f8
:04afe000cfff00009f
:020000040000fa
:020000040002f8
:04afe400cfff00009b
:020000040000fa
:020000040002f8
:04afe8007fff0000e7
:020000040000fa
:020000040002f8
:04afec00bfff0000a3
:020000040000fa
:020000040002f8
:04aff0007fff0000df
:020000040000fa
:020000040002f8
:04aff400ffffff005c
:00000001FF
