:020000040000fa
:080000000002040000000000f2
:020000040000fa
:04000800fa020000f8
:020000040000fa
:04000c003c030000b1
:020000040000fa
:040010009c0300004d
:020000040000fa
:040014001a030000cb
:020000040000fa
:040018005c03000085
:020000040000fa
:04001c007c03000061
:020000040000fa
:04002000bc0300001d
:020000040000fa
:04002400e8030000ed
:020000040000fa
:04002800e8030000e9
:020000040000fa
:04002c00e8030000e5
:020000040000fa
:04003000e8030000e1
:020000040000fa
:04003400e8030000dd
:020000040000fa
:04003800e8030000d9
:020000040000fa
:04003c00e8030000d5
:020000040000fa
:04004000e8030000d1
:020000040000fa
:04004400e8030000cd
:020000040000fa
:04004800e8030000c9
:020000040000fa
:04004c00e8030000c5
:020000040000fa
:04005000e8030000c1
:020000040000fa
:04005400e8030000bd
:020000040000fa
:04005800e8030000b9
:020000040000fa
:04005c00e8030000b5
:020000040000fa
:04006000e8030000b1
:020000040000fa
:04006400e8030000ad
:020000040000fa
:04006800e8030000a9
:020000040000fa
:04006c00e8030000a5
:020000040000fa
:04007000e8030000a1
:020000040000fa
:04007400e80300009d
:020000040000fa
:04007800e803000099
:020000040000fa
:04007c00e803000095
:020000040000fa
:04008000e803000091
:020000040000fa
:04008400e80300008d
:020000040000fa
:04008800e803000089
:020000040000fa
:04008c00e803000085
:020000040000fa
:04009000e803000081
:020000040000fa
:04009400e80300007d
:020000040000fa
:04009800e803000079
:020000040000fa
:04009c00e803000075
:020000040000fa
:0400a000e803000071
:020000040000fa
:0400a400e80300006d
:020000040000fa
:0400a800e803000069
:020000040000fa
:0400ac00e803000065
:020000040000fa
:0400b000e803000061
:020000040000fa
:0400b400e80300005d
:020000040000fa
:0400b800e803000059
:020000040000fa
:0400bc00e803000055
:020000040000fa
:0400c000e803000051
:020000040000fa
:0400c400e80300004d
:020000040000fa
:0400c800e803000049
:020000040000fa
:0400cc00e803000045
:020000040000fa
:0400d000e803000041
:020000040000fa
:0400d400e80300003d
:020000040000fa
:0400d800e803000039
:020000040000fa
:0400dc00e803000035
:020000040000fa
:0400e000e803000031
:020000040000fa
:0400e400e80300002d
:020000040000fa
:0400e800e803000029
:020000040000fa
:0400ec00e803000025
:020000040000fa
:0400f000e803000021
:020000040000fa
:0400f400e80300001d
:020000040000fa
:0400f800e803000019
:020000040000fa
:0400fc00e803000015
:020000040000fa
:04010000e803000010
:020000040000fa
:04010400e80300000c
:020000040000fa
:04010800e803000008
:020000040000fa
:04010c00e803000004
:020000040000fa
:04011000e803000000
:020000040000fa
:04011400e8030000fc
:020000040000fa
:04011800e8030000f8
:020000040000fa
:04011c00e8030000f4
:020000040000fa
:04012000e8030000f0
:020000040000fa
:04012400e8030000ec
:020000040000fa
:04012800e8030000e8
:020000040000fa
:04012c00e8030000e4
:020000040000fa
:04013000e8030000e0
:020000040000fa
:04013400e8030000dc
:020000040000fa
:04013800e8030000d8
:020000040000fa
:04013c00e8030000d4
:020000040000fa
:04014000e8030000d0
:020000040000fa
:04014400e8030000cc
:020000040000fa
:04014800e8030000c8
:020000040000fa
:04014c00e8030000c4
:020000040000fa
:04015000e8030000c0
:020000040000fa
:04015400e8030000bc
:020000040000fa
:04015800e8030000b8
:020000040000fa
:04015c00e8030000b4
:020000040000fa
:04016000e8030000b0
:020000040000fa
:04016400e8030000ac
:020000040000fa
:04016800e8030000a8
:020000040000fa
:04016c00e8030000a4
:020000040000fa
:04017000e8030000a0
:020000040000fa
:04017400e80300009c
:020000040000fa
:04017800e803000098
:020000040000fa
:04017c00e803000094
:020000040000fa
:04018000e803000090
:020000040000fa
:04018400e80300008c
:020000040000fa
:04018800e803000088
:020000040000fa
:04018c00e803000084
:020000040000fa
:04019000e803000080
:020000040000fa
:04019400e80300007c
:020000040000fa
:04019800e803000078
:020000040000fa
:04019c00e803000074
:020000040000fa
:0401a000e803000070
:020000040000fa
:0401a400e80300006c
:020000040000fa
:0401a800e803000068
:020000040000fa
:0401ac00e803000064
:020000040000fa
:0401b000e803000060
:020000040000fa
:0401b400e80300005c
:020000040000fa
:0401b800e803000058
:020000040000fa
:0401bc00e803000054
:020000040000fa
:0401c000e803000050
:020000040000fa
:0401c400e80300004c
:020000040000fa
:0401c800e803000048
:020000040000fa
:0401cc00e803000044
:020000040000fa
:0401d000e803000040
:020000040000fa
:0401d400e80300003c
:020000040000fa
:0401d800e803000038
:020000040000fa
:0401dc00e803000034
:020000040000fa
:0401e000e803000030
:020000040000fa
:0401e400e80300002c
:020000040000fa
:0401e800e803000028
:020000040000fa
:0401ec00e803000024
:020000040000fa
:0401f000e803000020
:020000040000fa
:0401f400e80300001c
:020000040000fa
:0401f800e803000018
:020000040000fa
:0401fc00e803000014
:020000040000fa
:04020000e80300000f
:020000040000fa
:04020400e80300000b
:020000040000fa
:04020800e803000007
:020000040000fa
:04020c00e803000003
:020000040000fa
:04021000e8030000ff
:020000040000fa
:04021400e8030000fb
:020000040000fa
:04021800e8030000f7
:020000040000fa
:04021c00e8030000f3
:020000040000fa
:04022000e8030000ef
:020000040000fa
:04022400e8030000eb
:020000040000fa
:04022800e8030000e7
:020000040000fa
:04022c00e8030000e3
:020000040000fa
:04023000e8030000df
:020000040000fa
:04023400e8030000db
:020000040000fa
:04023800e8030000d7
:020000040000fa
:04023c00e8030000d3
:020000040000fa
:04024000e8030000cf
:020000040000fa
:04024400e8030000cb
:020000040000fa
:04024800e8030000c7
:020000040000fa
:04024c00e8030000c3
:020000040000fa
:04025000e8030000bf
:020000040000fa
:04025400e8030000bb
:020000040000fa
:04025800e8030000b7
:020000040000fa
:04025c00e8030000b3
:020000040000fa
:04026000e8030000af
:020000040000fa
:04026400e8030000ab
:020000040000fa
:04026800e8030000a7
:020000040000fa
:04026c00e8030000a3
:020000040000fa
:04027000e80300009f
:020000040000fa
:04027400e80300009b
:020000040000fa
:04027800e803000097
:020000040000fa
:04027c00e803000093
:020000040000fa
:04028000e80300008f
:020000040000fa
:100400006f0221000eff24000e0188000000000092
:10041000000020000000e000020032000001200087
:100420002002880014000700eb0007000000e00035
:1004300003003a00c08920000100200002003700bc
:100440000000200001002000810f70000100320038
:100450000f000700000020000000e0000200320052
:100460000000020000000000700502000000000013
:100470000040da000000fe00400320000000e00021
:1004800002003200002020009001880000000600d9
:10049000a1028800800478000000eb001f003700f4
:1004a000e284440054a0b4009905ba00e2844400f8
:1004b00054a0b4009906ba00e284440054a0b400e9
:1004c0000006eb00476fde00fd07b200ae018800ba
:1004d000636ce10003003a000ad801000000eb0061
:1004e0000e003700606ce10008003a00004deb00a0
:1004f0000a05e800020039003420ec000af0a000f0
:100500008b05e900f9ff3e00040037006168e10057
:10051000010032000086eb000b00070019c7ba008b
:100520000e04e0001905ba0003003a000a00e000da
:10053000dbff3a0000000600fe07b200ae028800b2
:100540008a047800f5ff37000cd0a300e20f4d00bd
:100550001c003b0089027800354dba000a05e8000e
:10056000020039003420ec000af0a0008b05e900fd
:100570000f003200254dba000a05e80002003900dc
:100580003420ec000af0a0008b05e90008003200de
:100590000c00e0000600320015cdba000a05e800a4
:1005a000020039003420ec000af0a0008b05e900bd
:1005b0008984e80054a0b4000b00e000e2ff3a0098
:1005c000000006009902ba00055d78008b05e9007d
:1005d000f7ff3200c82ade00055d78008b05e900d0
:1005e000f3ff32000c00e000f1ff320019ddba0029
:1005f000eeff37003600f800809fbe00829fbe00ed
:10060000849fbe00869fbe000000fa00c028a9009b
:100610000000eb00ac0207000080fa004f03be00b0
:100620004f02be004f01be004f00be003600f90071
:10063000004006003600f800809fbe00829fbe008a
:10064000849fbe00869fbe000000fa00a50207003e
:10065000c048a900100020009b0207000080fa009b
:100660004f03be004f02be004f01be004f00be0050
:100670003600f900004006003600f800809fbe00fa
:10068000829fbe00849fbe00869fbe000000fa00cd
:10069000c068a900200020008b0207000080fa003b
:1006a0004f03be004f02be004f01be004f00be0010
:1006b0003600f900004006003600f800809fbe00ba
:1006c000829fbe00849fbe00869fbe000000fa008d
:1006d000c088a900300020007b0207000080fa00db
:1006e0004f03be004f02be004f01be004f00be00d0
:1006f0003600f900004006003600f800809fbe007a
:10070000829fbe00849fbe00869fbe000000fa004c
:10071000c0a8a900400020006b0207000080fa007a
:100720004f03be004f02be004f01be004f00be008f
:100730003600f900004006003600f800809fbe0039
:10074000829fbe00849fbe00869fbe000000fa000c
:10075000c608a900700020005b0207000080fa00b4
:100760004f03be004f02be004f01be004f00be004f
:100770003600f900004006003600f800809fbe00f9
:10078000829fbe00849fbe00869fbe000000fa00cc
:100790002146800000022000008060000000e00090
:1007a00003003200c4a8a900900020004602070000
:1007b00020468000700060000000e000030032006e
:1007c000c488a900a00020003f020700ffff3700f7
:0c07d0000040da000000fe000000050000
:020000040000fa
:1007dc00486500006c6c00006f2000004d65000047
:1007ec0067680000616a000021000000535000009f
:1007fc00492000006861000072640000776100000d
:10080c0072650000204f00004b000000536f000089
:10081c007272000075200000666f000072200000ec
:10082c007468000065200000747200006f620000a4
:08083c006c6500007300000070
:020000040000fa
:100844000000fa0041e2a900113a8000f00b2000f8
:1008540000816000600420007105200023742000e2
:10086400804978008149780082497800103a8000f4
:10087400000178000260a0006004200071052000df
:1008840023742000804978008149780082497800e7
:100894004222ef0042a2a8004342a80042c2a9009b
:1008a4004302a8004322a80011128000c0ff2f00b9
:1008b400008060000010a000101288001112800057
:1008c40030fe2f00008060008001b3001012880009
:1008d4004422ef004022ef0041e2a8000080fa0029
:1008e400000006000400fa00100798000300370017
:1008f40040128000000f78001e0078000012800073
:10090400610060000000e000f9ff3a009e009000e2
:1009140041128800000000000012800061006000a5
:100924000000e000fcff320040128000000f78005d
:100934001e0078000080fa00000006000000fa00a3
:100944001e0ea900100ea900140ea80010eea90096
:10095400110ea9000080fa00000006000400fa004d
:10096400100798001e0090004600dd00000f78007c
:10097400140ea9001000200001002000df01070070
:100984001e007800d7ff070010002000010020009f
:10099400da010700140ea800800b200001002000db
:1009a400d60107000080fa00000006000000fa00eb
:1009b400e2ff0700a2ff070000ec2c00210020004a
:1009c400ce01070080032000e4ff0700004520005b
:1009d40001002000c901070080002000dfff07009c
:1009e4000045200001002000c40107001000200081
:1009f400daff07000059210001002000bf010700b1
:100a040060002000d5ff0700004520000100200001
:100a1400ba01070020002000d0ff070000e62000f4
:100a240001002000b5010700c0002000cbff070033
:100a3400003f220001002000b00107000080fa00fe
:100a4400000006000400fa0020479800314798008f
:100a54002e4090000004e0000200320000c4b30005
:100a6400010037000040eb00be409000efc0600082
:100a7400014f40001e4078000074a0000080fb007d
:100a8400b6ff070000452000010020009b0107007d
:100a94000080fa00000006000200fa00000f78004f
:100aa400080037001e007800104078008000fb002a
:100ab400f00f2000008060000090a0001e0fe800ee
:100ac400a6ff07001e007800104078000004e00034
:100ad400f4ff3a000080fa00000006000000fa006b
:100ae4006f010700b1ff07008040eb000040eb00fe
:100af400d4ff0700e03e2800e7ff07008040eb003a
:100b040010c0b300cfff0700c03f2800e2ff07007a
:100b14008040eb0010c0b300caff0700c0402800ab
:100b2400ddff070000000000feff37000000fa00b0
:100b34006077200010128800100020002012880026
:100b4400c0002800001288000080fa00000006009f
:100b54000400fa00000f780011079800000000005c
:100b640000128000620060000000e000fcff3a0018
:100b74001e00780010007800401288000000000079
:100b84000112800000022000008060000000e000ec
:100b9400fbff3a001e00900041128000010878001b
:100ba4000080fa00000006001800fa00100f9800f8
:100bb400210f9800320f98000000eb00000f78001e
:100bc4000000eb00100798000000eb00700798008d
:100bd4000000eb00000f9800200020006007980040
:100be4002e0890000000d100200f98001e089000ed
:100bf4000000e00005003a000000eb0050079800f8
:100c0400700047002007980004003700ee009000b1
:100c1400510798009e089000210798003e08900014
:100c24000000e00005003a000000eb0040079800d7
:100c34006e0047003007980005003700ee00900072
:100c440041079800be08900031079800000000009a
:100c540000128000620060000000e000fcff3a0027
:100c64001b00370000128000620060000000e000fa
:100c740008003a002e00900010007800401288000e
:100c8400ae0090005e0090000080400020079800b5
:100c94001e0fe800011280000002200000806000a6
:100ca4000000e0000a003a003e009000411280007b
:100cb40001087800be0090004e00900000804000c3
:100cc400300798001e0090000000e800100798000c
:100cd4002e0890009e007800808f5000e1ff3900bc
:100ce4000f00370001128000000220000080600025
:100cf4000000e0000a003a003e009000411280002b
:100d040001087800be0090004e0090000080400072
:100d1400300798001e0090000000e80010079800bb
:100d24009e0090002e089000808f5000edff390047
:100d34001e0078000080fa00000006000400fa009b
:100d4400100798008e0078000e80e80080ff0700ee
:100d54001e0078000080fa00000006000600fa0079
:100d6400000f78001107980022079800ae00900049
:100d74001e007800010178009e0090008aff0700a1
:100d84000080fa00000006000000fa000012800053
:100d94000080fa00000006000000fa00003a80001b
:100da4000080fa00000006000200fa00faff0700c3
:100db400000f78001e007800240007000004e00003
:100dc4000200320000002800710007001e007800b5
:100dd4002a0007000004e0000200320000002400a2
:100de4006b0007001e007800320007000004e000da
:100df4000200320000202000650007001e00780079
:100e04003a0007000004e00002003200000820005d
:100e14005f0007001e007800420007000004e000a5
:100e24000200320000042000590007001e00780070
:100e34004a0007000004e000020032000001200024
:100e4400530007000080fa00000006000400fa00c6
:100e5400100798000040eb00004f78001e0090003f
:100e64000000e00002003d0010c0b300004f780015
:100e74001e4078000080fa00000006000400fa001a
:100e8400100798000040eb00004f78009e0090008f
:100e940000002400008060000000e0000200320036
:100ea40010c0b300004f78001e4078000080fa00a4
:100eb400000006000400fa00100798000040eb0050
:100ec400004f78009e009000002020000080600009
:100ed4000000e0000200320010c0b300004f7800b0
:100ee4001e4078000080fa00000006000400fa00aa
:100ef400100798000040eb00004f78009e0090001f
:100f040000082000008060000000e00002003200c1
:100f140010c0b300004f78001e4078000080fa0033
:100f2400000006000400fa00100798000040eb00df
:100f3400004f78009e0090000004200000806000b4
:100f44000000e0000200320010c0b300004f78003f
:100f54001e4078000080fa00000006000400fa0039
:100f6400100798000040eb00004f78001e0090002e
:100f7400700060000000e0000200320010c0b30006
:100f8400004f78001e4078000080fa000000060040
:100f94000200fa00000f78009e80ea00003a800008
:100fa40000806000003a88000080fa00000006001b
:100fb4000000fa004027ef000080fa00000006005d
:100fc4000000fa0000142300203a88004827ef00ac
:100fd4004e27ef0020032000303a88006027ef00fe
:100fe4006227ef006427ef006627ef006c27ef000d
:100ff4007200200080072000a10920003374200023
:101004008049780081497800824978000001eb002a
:1010140060042000710520002374200080497800ba
:1010240081497800824978000080fa0000000600b7
:101034000000fa00042eef00142eef0070012000cf
:1010440000708800e0e72f00807088000c2eef000d
:101054001c2eef000a2eef001a2eef00062eef00d2
:10106400162eef0030012000707088002000200050
:10107400f07088000080fa00000006000200fa0008
:10108400000f780021028000200f20000080600003
:101094001e007000200288000080fa000000060094
:1010a4000000fa00e2ff070035000700c4ff070054
:1010b4009efe070000022000f0ff07000080fa00f7
:1010c400000006000200fa00000f78009e0078007d
:1010d400218088000000fe000080fa000000060065
:1010e4000000fa006000210080077800e001210080
:0c10f400000188000080fa0000000600e7
:020000040000fa
:10110000f03fb1000180b10006003500ee03090098
:1011100000000000403fb1000180b100fbff3d0036
:101120001000b000203fb000020035000080090030
:081130000000000000000600b1
:020000040000fa
:1011380006100000200000008000000004100000dd
:101148000200000082000000ffff00000010000005
:0c11580004000000800000000000000007
:020000040000fa
:10116400809fbe00ec80570031007800008088002a
:101174001100780002f0b7004f00be000000060026
:0c1184000000fa000080fa0000000600e5
:020000040000fa
:020000040002f8
:04afe000cfff00009f
:020000040000fa
:020000040002f8
:04afe400cfff00009b
:020000040000fa
:020000040002f8
:04afe8007fff0000e7
:020000040000fa
:020000040002f8
:04afec00bfff0000a3
:020000040000fa
:020000040002f8
:04aff0007fff0000df
:020000040000fa
:020000040002f8
:04aff400ffffff005c
:00000001FF
