:020000040000fa
:080000000002040000000000f2
:020000040000fa
:04000800fa020000f8
:020000040000fa
:04000c003c030000b1
:020000040000fa
:040010009c0300004d
:020000040000fa
:040014001a030000cb
:020000040000fa
:040018005c03000085
:020000040000fa
:04001c007c03000061
:020000040000fa
:04002000bc0300001d
:020000040000fa
:04002400e8030000ed
:020000040000fa
:04002800e8030000e9
:020000040000fa
:04002c00e8030000e5
:020000040000fa
:04003000e8030000e1
:020000040000fa
:04003400e8030000dd
:020000040000fa
:04003800e8030000d9
:020000040000fa
:04003c00e8030000d5
:020000040000fa
:04004000e8030000d1
:020000040000fa
:04004400e8030000cd
:020000040000fa
:04004800e8030000c9
:020000040000fa
:04004c00e8030000c5
:020000040000fa
:04005000e8030000c1
:020000040000fa
:04005400e8030000bd
:020000040000fa
:04005800e8030000b9
:020000040000fa
:04005c00e8030000b5
:020000040000fa
:04006000e8030000b1
:020000040000fa
:04006400e8030000ad
:020000040000fa
:04006800e8030000a9
:020000040000fa
:04006c00e8030000a5
:020000040000fa
:04007000e8030000a1
:020000040000fa
:04007400e80300009d
:020000040000fa
:04007800e803000099
:020000040000fa
:04007c00e803000095
:020000040000fa
:04008000e803000091
:020000040000fa
:04008400e80300008d
:020000040000fa
:04008800e803000089
:020000040000fa
:04008c00e803000085
:020000040000fa
:04009000e803000081
:020000040000fa
:04009400e80300007d
:020000040000fa
:04009800e803000079
:020000040000fa
:04009c00e803000075
:020000040000fa
:0400a000e803000071
:020000040000fa
:0400a400e80300006d
:020000040000fa
:0400a800e803000069
:020000040000fa
:0400ac00e803000065
:020000040000fa
:0400b000e803000061
:020000040000fa
:0400b400e80300005d
:020000040000fa
:0400b800e803000059
:020000040000fa
:0400bc00e803000055
:020000040000fa
:0400c000e803000051
:020000040000fa
:0400c400e80300004d
:020000040000fa
:0400c800e803000049
:020000040000fa
:0400cc00e803000045
:020000040000fa
:0400d000e803000041
:020000040000fa
:0400d400e80300003d
:020000040000fa
:0400d800e803000039
:020000040000fa
:0400dc00e803000035
:020000040000fa
:0400e000e803000031
:020000040000fa
:0400e400e80300002d
:020000040000fa
:0400e800e803000029
:020000040000fa
:0400ec00e803000025
:020000040000fa
:0400f000e803000021
:020000040000fa
:0400f400e80300001d
:020000040000fa
:0400f800e803000019
:020000040000fa
:0400fc00e803000015
:020000040000fa
:04010000e803000010
:020000040000fa
:04010400e80300000c
:020000040000fa
:04010800e803000008
:020000040000fa
:04010c00e803000004
:020000040000fa
:04011000e803000000
:020000040000fa
:04011400e8030000fc
:020000040000fa
:04011800e8030000f8
:020000040000fa
:04011c00e8030000f4
:020000040000fa
:04012000e8030000f0
:020000040000fa
:04012400e8030000ec
:020000040000fa
:04012800e8030000e8
:020000040000fa
:04012c00e8030000e4
:020000040000fa
:04013000e8030000e0
:020000040000fa
:04013400e8030000dc
:020000040000fa
:04013800e8030000d8
:020000040000fa
:04013c00e8030000d4
:020000040000fa
:04014000e8030000d0
:020000040000fa
:04014400e8030000cc
:020000040000fa
:04014800e8030000c8
:020000040000fa
:04014c00e8030000c4
:020000040000fa
:04015000e8030000c0
:020000040000fa
:04015400e8030000bc
:020000040000fa
:04015800e8030000b8
:020000040000fa
:04015c00e8030000b4
:020000040000fa
:04016000e8030000b0
:020000040000fa
:04016400e8030000ac
:020000040000fa
:04016800e8030000a8
:020000040000fa
:04016c00e8030000a4
:020000040000fa
:04017000e8030000a0
:020000040000fa
:04017400e80300009c
:020000040000fa
:04017800e803000098
:020000040000fa
:04017c00e803000094
:020000040000fa
:04018000e803000090
:020000040000fa
:04018400e80300008c
:020000040000fa
:04018800e803000088
:020000040000fa
:04018c00e803000084
:020000040000fa
:04019000e803000080
:020000040000fa
:04019400e80300007c
:020000040000fa
:04019800e803000078
:020000040000fa
:04019c00e803000074
:020000040000fa
:0401a000e803000070
:020000040000fa
:0401a400e80300006c
:020000040000fa
:0401a800e803000068
:020000040000fa
:0401ac00e803000064
:020000040000fa
:0401b000e803000060
:020000040000fa
:0401b400e80300005c
:020000040000fa
:0401b800e803000058
:020000040000fa
:0401bc00e803000054
:020000040000fa
:0401c000e803000050
:020000040000fa
:0401c400e80300004c
:020000040000fa
:0401c800e803000048
:020000040000fa
:0401cc00e803000044
:020000040000fa
:0401d000e803000040
:020000040000fa
:0401d400e80300003c
:020000040000fa
:0401d800e803000038
:020000040000fa
:0401dc00e803000034
:020000040000fa
:0401e000e803000030
:020000040000fa
:0401e400e80300002c
:020000040000fa
:0401e800e803000028
:020000040000fa
:0401ec00e803000024
:020000040000fa
:0401f000e803000020
:020000040000fa
:0401f400e80300001c
:020000040000fa
:0401f800e803000018
:020000040000fa
:0401fc00e803000014
:020000040000fa
:04020000e80300000f
:020000040000fa
:04020400e80300000b
:020000040000fa
:04020800e803000007
:020000040000fa
:04020c00e803000003
:020000040000fa
:04021000e8030000ff
:020000040000fa
:04021400e8030000fb
:020000040000fa
:04021800e8030000f7
:020000040000fa
:04021c00e8030000f3
:020000040000fa
:04022000e8030000ef
:020000040000fa
:04022400e8030000eb
:020000040000fa
:04022800e8030000e7
:020000040000fa
:04022c00e8030000e3
:020000040000fa
:04023000e8030000df
:020000040000fa
:04023400e8030000db
:020000040000fa
:04023800e8030000d7
:020000040000fa
:04023c00e8030000d3
:020000040000fa
:04024000e8030000cf
:020000040000fa
:04024400e8030000cb
:020000040000fa
:04024800e8030000c7
:020000040000fa
:04024c00e8030000c3
:020000040000fa
:04025000e8030000bf
:020000040000fa
:04025400e8030000bb
:020000040000fa
:04025800e8030000b7
:020000040000fa
:04025c00e8030000b3
:020000040000fa
:04026000e8030000af
:020000040000fa
:04026400e8030000ab
:020000040000fa
:04026800e8030000a7
:020000040000fa
:04026c00e8030000a3
:020000040000fa
:04027000e80300009f
:020000040000fa
:04027400e80300009b
:020000040000fa
:04027800e803000097
:020000040000fa
:04027c00e803000093
:020000040000fa
:04028000e80300008f
:020000040000fa
:100400006f0221000eff24000e0188000000000092
:10041000000020000000e000020032000001200087
:100420002002880014000700eb0007000000e00035
:1004300003003a00006f2000010020000200370096
:100440000000200001002000810f70000100320038
:100450000f000700000020000000e0000200320052
:10046000000002000000000006070200000000007b
:100470000040da000000fe00e00120000000e00083
:1004800002003200002020009001880000000600d9
:10049000a1028800800478000000eb001f003700f4
:1004a000e284440054a0b4009905ba00e2844400f8
:1004b00054a0b4009906ba00e284440054a0b400e9
:1004c0000006eb00476fde00fd07b200ae018800ba
:1004d000636ce10003003a000ad801000000eb0061
:1004e0000e003700606ce10008003a00004deb00a0
:1004f0000a05e800020039003420ec000af0a000f0
:100500008b05e900f9ff3e00040037006168e10057
:10051000010032000086eb000b00070019c7ba008b
:100520000e04e0001905ba0003003a000a00e000da
:10053000dbff3a0000000600fe07b200ae028800b2
:100540008a047800f5ff37000cd0a300e20f4d00bd
:100550001c003b0089027800354dba000a05e8000e
:10056000020039003420ec000af0a0008b05e900fd
:100570000f003200254dba000a05e80002003900dc
:100580003420ec000af0a0008b05e90008003200de
:100590000c00e0000600320015cdba000a05e800a4
:1005a000020039003420ec000af0a0008b05e900bd
:1005b0008984e80054a0b4000b00e000e2ff3a0098
:1005c000000006009902ba00055d78008b05e9007d
:1005d000f7ff3200c82ade00055d78008b05e900d0
:1005e000f3ff32000c00e000f1ff320019ddba0029
:1005f000eeff37003600f800809fbe00829fbe00ed
:10060000849fbe00869fbe000000fa00c028a9009b
:100610000000eb00d60107000080fa004f03be0087
:100620004f02be004f01be004f00be003600f90071
:10063000004006003600f800809fbe00829fbe008a
:10064000849fbe00869fbe000000fa00cf01070015
:10065000c048a90010002000c50107000080fa0072
:100660004f03be004f02be004f01be004f00be0050
:100670003600f900004006003600f800809fbe00fa
:10068000829fbe00849fbe00869fbe000000fa00cd
:10069000c068a90020002000b50107000080fa0012
:1006a0004f03be004f02be004f01be004f00be0010
:1006b0003600f900004006003600f800809fbe00ba
:1006c000829fbe00849fbe00869fbe000000fa008d
:1006d000c088a90030002000a50107000080fa00b2
:1006e0004f03be004f02be004f01be004f00be00d0
:1006f0003600f900004006003600f800809fbe007a
:10070000829fbe00849fbe00869fbe000000fa004c
:10071000c0a8a90040002000950107000080fa0051
:100720004f03be004f02be004f01be004f00be008f
:100730003600f900004006003600f800809fbe0039
:10074000829fbe00849fbe00869fbe000000fa000c
:10075000c608a90070002000850107000080fa008b
:100760004f03be004f02be004f01be004f00be004f
:100770003600f900004006003600f800809fbe00f9
:10078000829fbe00849fbe00869fbe000000fa00cc
:100790002146800000022000008060000000e00090
:1007a00003003200c4a8a9009000200070010700d7
:1007b00020468000700060000000e000030032006e
:1007c000c488a900a000200069010700ffff3700ce
:0c07d0000040da000000fe000000050000
:020000040000fa
:1007dc00486500006c6c00006f2000004d65000047
:1007ec0067680000616a00002100000050490000a9
:1007fc00433200003420000062690000742d0000b8
:0c080c00626100006e6700000000000048
:020000040000fa
:100818000000fa00000000000000000000000000d6
:1008280000000000000000000000000000000000c0
:100838000000000000000000000000000080fa0036
:10084800000006000800fa00200798003107980009
:100858002e00900061006000c900dd003e0190009c
:10086800f00f2000000061000100700010079800e0
:1008780014eea900142ea900e5ff0700900020003f
:10088800000f7800100037009e0090001e007800ce
:100898000008de0061006000004078000004e0000d
:1008a80002003200150ea80001003700150ea9003d
:1008b800d7ff070014eea800d5ff070014eea90023
:1008c800d3ff07001e0fe9001e0078000000e000bb
:1008d800edff3d00142ea800150ea900ccff07005f
:1008e8000080fa00000006000200fa00000f7800fd
:1008f8009e0078000000eb00d2ff070000452000b2
:1009080001002000260107000080fa000000060010
:100918000200fa00000f78009e0078001000200006
:10092800c8ff070000452000010020001c01070047
:100938000080fa00000006000000fa00142ea8004b
:1009480014eea900150ea90000ec2c0021002000cf
:100958001301070080032000e3ff07008000200048
:10096800e1ff070010002000dfff07000059210009
:10097800010020000a01070060002000daff0700dc
:1009880020002000d8ff070000e62000010020001a
:1009980003010700c0002000d3ff0700007e2400e9
:1009a80001002000fe0007000080fa000000060099
:1009b8000200fa00000f780020002000caff07009c
:1009c80000e6200001002000f500070005003700c0
:1009d8001e007800104078000080fb001e0fe80021
:1009e800cbff07001e007800104078000004e000ec
:1009f800f7ff3a000080fa00000006000200fa0043
:100a0800000f7800000c2000b7ff07000500370032
:100a18001e007800104078000080fb001e0fe800e0
:100a2800bbff07001e007800104078000004e000bb
:100a3800f7ff3a000080fa00000006000000fa0004
:100a4800003a80000080fa00000006000200fa0068
:100a5800faff0700000f78001e0078002400070046
:100a68000004e000020032000000280071000700c6
:100a78001e0078002a0007000004e000020032008f
:100a8800000024006b0007001e00780032000700f9
:100a98000004e0000200320000202000650007008a
:100aa8001e0078003a0007000004e000020032004f
:100ab800000820005f0007001e00780042000700c1
:100ac8000004e00002003200000420005900070082
:100ad8001e0078004a0007000004e000020032000f
:100ae80000012000530007000080fa000000060003
:100af8000400fa00100798000040eb00004f78004f
:100b08001e0090000000e00002003d0010c0b3008d
:100b1800004f78001e4078000080fa0000000600b0
:100b28000400fa00100798000040eb00004f78001e
:100b38009e00900000002400008060000000e0009b
:100b48000200320010c0b300004f78001e40780049
:100b58000080fa00000006000400fa001007980060
:100b68000040eb00004f78009e009000002020001d
:100b7800008060000000e0000200320010c0b300f6
:100b8800004f78001e4078000080fa000000060040
:100b98000400fa00100798000040eb00004f7800ae
:100ba8009e00900000082000008060000000e00027
:100bb8000200320010c0b300004f78001e407800d9
:100bc8000080fa00000006000400fa0010079800f0
:100bd8000040eb00004f78009e00900000042000c9
:100be800008060000000e0000200320010c0b30086
:100bf800004f78001e4078000080fa0000000600d0
:100c08000400fa00100798000040eb00004f78003d
:100c18001e009000700060000000e000020032003a
:100c280010c0b300004f78001e4078000080fa0022
:100c3800000006000200fa00000f78009e80ea001b
:100c4800003a800000806000003a88000080fa00c6
:100c5800000006000000fa004027ef000080fa00bc
:100c6800000006000000fa0000142300203a880063
:100c78004827ef004e27ef0020032000303a880075
:100c88006027ef006227ef006427ef006627ef0078
:100c98006c27ef007200200080072000a1092000c7
:100ca80033742000804978008149780082497800af
:100cb8000001eb006004200071052000237420006f
:100cc8008049780081497800824978000080fa00dc
:100cd800000006000000fa00042eef0020002000ab
:100ce800a07088007001200000708800d0e72f00f5
:100cf800807088000c2eef001c2eef000a2eef00eb
:100d08001a2eef00062eef00162eef0030012000fd
:100d18007070880010002000f07088000080fa00d1
:100d2800000006000200fa00000f7800210280008f
:100d3800200f2000008060001e0070002002880044
:100d48000080fa00000006000000fa00e1ff07003a
:100d58003d000700c3ff070000022000f1ff070065
:100d68000080fa00000006000200fa00000f780078
:100d78009e007800218088000000fe000080fa00b4
:100d8800000006000000fa006000210080077800db
:100d9800e0012100000188000080fa000000060040
:020000040000fa
:100da800f03fb1000180b10006003500ee030900f4
:100db80000000000403fb1000180b100fbff3d0092
:100dc8001000b000203fb00002003500008009008c
:080dd80000000000000006000d
:020000040000fa
:100de0000610000020000000800000000410000039
:100df0000200000082000000ffff00000010000061
:0c0e000004000000800000000000000062
:020000040000fa
:100e0c000000fa00cfff0700cafe0700e03e2800f2
:100e1c00e6fe0700c03f2800f7fe070000000000b8
:100e2c00feff3700809fbe00ec8057003100780039
:100e3c00008088001100780002f0b7004f00be005f
:100e4c00000006000000fa000080fa000000060016
:020000040000fa
:020000040002f8
:04afe000cfff00009f
:020000040000fa
:020000040002f8
:04afe400cfff00009b
:020000040000fa
:020000040002f8
:04afe8007fff0000e7
:020000040000fa
:020000040002f8
:04afec00bfff0000a3
:020000040000fa
:020000040002f8
:04aff0007fff0000df
:020000040000fa
:020000040002f8
:04aff400ffffff005c
:00000001FF
