:020000040000fa
:080000000002040000000000f2
:020000040000fa
:040008000e030000e3
:020000040000fa
:04000c00500300009d
:020000040000fa
:04001000b003000039
:020000040000fa
:040014002e030000b7
:020000040000fa
:040018007003000071
:020000040000fa
:04001c00900300004d
:020000040000fa
:04002000d003000009
:020000040000fa
:0400240032040000a2
:020000040000fa
:04002800320400009e
:020000040000fa
:04002c00320400009a
:020000040000fa
:040030003204000096
:020000040000fa
:04003400fc030000c9
:020000040000fa
:04003800320400008e
:020000040000fa
:04003c00320400008a
:020000040000fa
:040040003204000086
:020000040000fa
:040044003204000082
:020000040000fa
:04004800320400007e
:020000040000fa
:04004c00320400007a
:020000040000fa
:040050003204000076
:020000040000fa
:040054003204000072
:020000040000fa
:04005800320400006e
:020000040000fa
:04005c00320400006a
:020000040000fa
:040060003204000066
:020000040000fa
:040064003204000062
:020000040000fa
:04006800320400005e
:020000040000fa
:04006c00320400005a
:020000040000fa
:040070003204000056
:020000040000fa
:040074003204000052
:020000040000fa
:04007800320400004e
:020000040000fa
:04007c00320400004a
:020000040000fa
:040080003204000046
:020000040000fa
:040084003204000042
:020000040000fa
:04008800320400003e
:020000040000fa
:04008c00320400003a
:020000040000fa
:040090003204000036
:020000040000fa
:040094003204000032
:020000040000fa
:04009800320400002e
:020000040000fa
:04009c00320400002a
:020000040000fa
:0400a0003204000026
:020000040000fa
:0400a4003204000022
:020000040000fa
:0400a800320400001e
:020000040000fa
:0400ac00320400001a
:020000040000fa
:0400b0003204000016
:020000040000fa
:0400b4003204000012
:020000040000fa
:0400b800320400000e
:020000040000fa
:0400bc00320400000a
:020000040000fa
:0400c0003204000006
:020000040000fa
:0400c4003204000002
:020000040000fa
:0400c80032040000fe
:020000040000fa
:0400cc0032040000fa
:020000040000fa
:0400d00032040000f6
:020000040000fa
:0400d40032040000f2
:020000040000fa
:0400d80032040000ee
:020000040000fa
:0400dc0032040000ea
:020000040000fa
:0400e00032040000e6
:020000040000fa
:0400e40032040000e2
:020000040000fa
:0400e80032040000de
:020000040000fa
:0400ec0032040000da
:020000040000fa
:0400f00032040000d6
:020000040000fa
:0400f40032040000d2
:020000040000fa
:0400f80032040000ce
:020000040000fa
:0400fc0032040000ca
:020000040000fa
:0401000032040000c5
:020000040000fa
:0401040032040000c1
:020000040000fa
:0401080032040000bd
:020000040000fa
:04010c0032040000b9
:020000040000fa
:0401100032040000b5
:020000040000fa
:0401140032040000b1
:020000040000fa
:0401180032040000ad
:020000040000fa
:04011c0032040000a9
:020000040000fa
:0401200032040000a5
:020000040000fa
:0401240032040000a1
:020000040000fa
:04012800320400009d
:020000040000fa
:04012c003204000099
:020000040000fa
:040130003204000095
:020000040000fa
:040134003204000091
:020000040000fa
:04013800320400008d
:020000040000fa
:04013c003204000089
:020000040000fa
:040140003204000085
:020000040000fa
:040144003204000081
:020000040000fa
:04014800320400007d
:020000040000fa
:04014c003204000079
:020000040000fa
:040150003204000075
:020000040000fa
:040154003204000071
:020000040000fa
:04015800320400006d
:020000040000fa
:04015c003204000069
:020000040000fa
:040160003204000065
:020000040000fa
:040164003204000061
:020000040000fa
:04016800320400005d
:020000040000fa
:04016c003204000059
:020000040000fa
:040170003204000055
:020000040000fa
:040174003204000051
:020000040000fa
:04017800320400004d
:020000040000fa
:04017c003204000049
:020000040000fa
:040180003204000045
:020000040000fa
:040184003204000041
:020000040000fa
:04018800320400003d
:020000040000fa
:04018c003204000039
:020000040000fa
:040190003204000035
:020000040000fa
:040194003204000031
:020000040000fa
:04019800320400002d
:020000040000fa
:04019c003204000029
:020000040000fa
:0401a0003204000025
:020000040000fa
:0401a4003204000021
:020000040000fa
:0401a800320400001d
:020000040000fa
:0401ac003204000019
:020000040000fa
:0401b0003204000015
:020000040000fa
:0401b4003204000011
:020000040000fa
:0401b800320400000d
:020000040000fa
:0401bc003204000009
:020000040000fa
:0401c0003204000005
:020000040000fa
:0401c4003204000001
:020000040000fa
:0401c80032040000fd
:020000040000fa
:0401cc0032040000f9
:020000040000fa
:0401d00032040000f5
:020000040000fa
:0401d40032040000f1
:020000040000fa
:0401d80032040000ed
:020000040000fa
:0401dc0032040000e9
:020000040000fa
:0401e00032040000e5
:020000040000fa
:0401e40032040000e1
:020000040000fa
:0401e80032040000dd
:020000040000fa
:0401ec0032040000d9
:020000040000fa
:0401f00032040000d5
:020000040000fa
:0401f40032040000d1
:020000040000fa
:0401f80032040000cd
:020000040000fa
:0401fc0032040000c9
:020000040000fa
:0402000032040000c4
:020000040000fa
:0402040032040000c0
:020000040000fa
:0402080032040000bc
:020000040000fa
:04020c0032040000b8
:020000040000fa
:0402100032040000b4
:020000040000fa
:0402140032040000b0
:020000040000fa
:0402180032040000ac
:020000040000fa
:04021c0032040000a8
:020000040000fa
:0402200032040000a4
:020000040000fa
:0402240032040000a0
:020000040000fa
:04022800320400009c
:020000040000fa
:04022c003204000098
:020000040000fa
:040230003204000094
:020000040000fa
:040234003204000090
:020000040000fa
:04023800320400008c
:020000040000fa
:04023c003204000088
:020000040000fa
:040240003204000084
:020000040000fa
:040244003204000080
:020000040000fa
:04024800320400007c
:020000040000fa
:04024c003204000078
:020000040000fa
:040250003204000074
:020000040000fa
:040254003204000070
:020000040000fa
:04025800320400006c
:020000040000fa
:04025c003204000068
:020000040000fa
:040260003204000064
:020000040000fa
:040264003204000060
:020000040000fa
:04026800320400005c
:020000040000fa
:04026c003204000058
:020000040000fa
:040270003204000054
:020000040000fa
:040274003204000050
:020000040000fa
:04027800320400004c
:020000040000fa
:04027c003204000048
:020000040000fa
:040280003204000044
:020000040000fa
:100400000f0a21000eff24000e01880000000000ea
:10041000000020000000e000020032000001200087
:1004200020028800140007002d0107000000e000f2
:1004300003003a00e014220001002000020037000f
:100440000000200001002000810f70000100320038
:100450000f000700000020000000e0000200320052
:100460000000020000000000921f020000000000d7
:100470000040da000000fe00600320000000e00001
:1004800002003200002020009001880000000600d9
:10049000a1028800800478000000eb001f003700f4
:1004a000e284440054a0b4009905ba00e2844400f8
:1004b00054a0b4009906ba00e284440054a0b400e9
:1004c0000006eb00476fde00fd07b200ae018800ba
:1004d000636ce10003003a000ad801000000eb0061
:1004e0000e003700606ce10008003a00004deb00a0
:1004f0000a05e800020039003420ec000af0a000f0
:100500008b05e900f9ff3e00040037006168e10057
:10051000010032000086eb000b00070019c7ba008b
:100520000e04e0001905ba0003003a000a00e000da
:10053000dbff3a0000000600fe07b200ae028800b2
:100540008a047800f5ff37000cd0a300e20f4d00bd
:100550001c003b0089027800354dba000a05e8000e
:10056000020039003420ec000af0a0008b05e900fd
:100570000f003200254dba000a05e80002003900dc
:100580003420ec000af0a0008b05e90008003200de
:100590000c00e0000600320015cdba000a05e800a4
:1005a000020039003420ec000af0a0008b05e900bd
:1005b0008984e80054a0b4000b00e000e2ff3a0098
:1005c000000006009902ba00055d78008b05e9007d
:1005d000f7ff3200c82ade00055d78008b05e900d0
:1005e000f3ff32000c00e000f1ff320019ddba0029
:1005f000eeff3700ee20040000000000861f04001c
:10060000000000001e130400000000009e0e040005
:1006100000000000a6080400000000003600f800fa
:10062000809fbe00829fbe00849fbe00869fbe004a
:100630000000fa00c028a9000000eb00be0f070070
:100640000080fa004f03be004f02be004f01be0003
:100650004f00be003600f900004006003600f800ea
:10066000809fbe00829fbe00849fbe00869fbe000a
:100670000000fa00b70f0700c048a90010002000d2
:10068000ad0f07000080fa004f03be004f02be000e
:100690004f01be004f00be003600f90000400600ca
:1006a0003600f800809fbe00829fbe00849fbe007f
:1006b000869fbe000000fa00c068a900200020004c
:1006c0009d0f07000080fa004f03be004f02be00de
:1006d0004f01be004f00be003600f900004006008a
:1006e0003600f800809fbe00829fbe00849fbe003f
:1006f000869fbe000000fa00c088a90030002000dc
:100700008d0f07000080fa004f03be004f02be00ad
:100710004f01be004f00be003600f9000040060049
:100720003600f800809fbe00829fbe00849fbe00fe
:10073000869fbe000000fa00c0a8a900400020006b
:100740007d0f07000080fa004f03be004f02be007d
:100750004f01be004f00be003600f9000040060009
:100760003600f800809fbe00829fbe00849fbe00be
:10077000869fbe000000fa00c608a9007000200095
:100780006d0f07000080fa004f03be004f02be004d
:100790004f01be004f00be003600f90000400600c9
:1007a0003600f800809fbe00829fbe00849fbe007e
:1007b000869fbe000000fa00214680000002200053
:1007c000008060000000e00003003200c4a8a9001f
:1007d00090002000580f0700204680007000600045
:1007e0000000e00003003200c488a900a00020003f
:1007f000510f0700ffff37003600f800809fbe0052
:10080000829fbe00849fbe00869fbe000000fa004b
:10081000308080000000e000020032003080800064
:1008200000000100d0092100104078008040e8005d
:10083000d009210001487800c009210011c0b3008f
:10084000014878000068a9000080fa004f03be004c
:100850004f02be004f01be004f00be003600f9003f
:10086000004006000040da000000fe000a00fa0026
:1008700011002000b1bf9f00c0bf9f006a805700d9
:100880001f0907004fb897000080fa00000006001b
:100890000800fa0010079800210798003207980016
:1008a000be009000010f7800070037002e00900076
:1008b00010407800ae0090008100e8002107980009
:1008c000d70d07001e0fe9001e0078000000e000b1
:1008d000f6ff3a003e0090000080fa00000006009b
:1008e00000000500f4ff2f00810137006011b800ff
:1008f0009a013700889fbe008a9fbe008c9fbe0071
:100900001b0020000202be000586680006002800c9
:10091000060666004709de00f20fb20082003200d0
:100920000243e80080003200c729de00f30fb20066
:100930007d0032000343e8007b003200f107b20083
:100940000170a000f507b2000570a000c708dd0027
:100950004903de00868070004700dd00c72add0005
:100960004923de00868272004722dd000305510024
:10097000040350008583580003003100000040004c
:10098000818048000a05e9008c1f78008a9fbe001c
:1009900004005000858058000402420085824a000d
:1009a00000004000818048000005eb000004be000c
:1009b0006033b8000406be000d48e1005600310067
:1009c000110009004dccd8000c01b8000d02b80090
:1009d0008481410060824a008283530003045c00ea
:1009e00084845c0060055d000a00e00025003a0098
:1009f000800578000d40e100490031008800780052
:100a000007007800110009004d88d8000c01b800db
:100a10000d02b8008481410060824a006003110029
:100a200083835b0004045c00e0845c000900e00058
:100a300021003a004f01be000300e0002b0032000d
:100a4000e3016000070673008c8171000100320031
:100a5000640070004200de004e5edd000c0070009d
:100a6000c258de0001e0a0009b000700cf01780023
:100a7000818071004f06be004f05be004f04be00ce
:100a8000000006008c8343000d044c00e0844c0001
:100a900060054d000000e9000a00e000d4ff3200cc
:100aa0008c8343000d044c00e0844c0060054d0035
:100ab0000000e900ceff37000c0343008d834b009c
:100ac00060044c00e0844c000000e9000900e000f4
:100ad000d8ff32000c0343008d834b0060044c00b0
:100ae000e0844c000000e900d2ff37004200de0045
:100af0004e5edd000c007000c258de0001e0a00078
:100b0000cf0178000300e000daff3200600010003f
:100b1000e0801800d7ff3700f0ff2f00aaff370052
:100b2000f0ff2f00b9ff37000404be00500007009b
:100b3000870678000004fd008104fd004c000700da
:100b4000078366000678a300030032000960a7004f
:100b50000800be002c0037000d78a3000200320010
:100b60000800be00280037000778a30026003a00de
:100b700001f0a10009f0a1000668a3000300320003
:100b8000f1ff2700f0ff2f00baff37000d68a30028
:100b9000030032000800be008c807000b5ff3700f3
:100ba0000768a30007003a000648a30003003200cc
:100bb000f1ff2700f0ff2f00aeff37000d48a30024
:100bc000030032006000b8008c807000a9ff37007d
:100bd0000748a3000400320001f8270000002000ad
:100be0008c807000a3ff37008e0007000004fd001a
:100bf0008104fd00020578008a0007000802be009b
:100c00008a01780059ff37000160a000120220001d
:100c10005280880097ff37000100e0001200320088
:100c20000500e00010003200889fbe008a9fbe00d1
:100c30008c9fbe000006eb0001f8a3000300320009
:100c400060001000e08018000cf0a00005f8a30080
:100c50000300320060021200e0821a000cf0a200d1
:100c60008005eb0041ff37006000b800020005007e
:100c70002700200001f0a70017002000470bde002e
:100c8000f60fb200040032000643e8000a0032000a
:100c90004702b3000000060001037800f607b20027
:100ca0000603700002003a000703b30000000600cc
:100cb0008702b3000000060001037800f607b200c7
:100cc00006037000020032000770a000000006005a
:100cd0000760a000000006008101700027003200bc
:100ce0008002eb0001f8a300030032006000100056
:100cf000e080180015002000f407200002024200e6
:100d000020003400f7032000870360000604200061
:100d10000003630002082000000161004700de00bc
:100d2000c909dd0000807100c708de000600e00090
:100d30000800320087037100060032001000b00086
:100d40000180b0000188a30002003200c108de006b
:100d50000402e800f107b200f30f20000320e100d5
:100d600003003d004722dd008100720029003700aa
:100d700001f827000000eb00260037006000b800f3
:100d800000000600680212007f20e100020034002b
:100d90006000b8001f0037006011b8007020e1004b
:100da0000400350080017800010078008000eb002d
:100db000700252000400e00009003400f003120049
:100dc0000719dd008419de000703dd00868171004c
:100dd0000400de00070bdd00060070008408de0062
:100de000f7ff270083836300870371000600280054
:100df00003036300070032000700e00003003a002d
:100e00006101600002817300020032001000b00036
:100e10000180b0000500a6000000060001f0a0005f
:100e2000000006004f0ade004709de00f107b200ad
:100e3000f20fb2000b003200f207b1000170a00007
:100e4000c708dd00c901de00838070004700dd00b7
:100e50000400a6000000060060001000e0801800fa
:100e600000000600810f700001003a00000006003b
:100e70008182cf000500e00010003e008082cf009c
:100e8000ee8242007028e1000400390007003e00b5
:100e9000800078000000eb000e0037007083120025
:100ea0008600de000500dd000a0037007083520076
:100eb0008600dd000000eb0006003700e2825200f1
:100ec0008508dd00708312000603de008680700056
:100ed0000500dd007507b0000501ea000400a6006a
:100ee0000000060060001000e0801800000006000e
:100ef000889fbe008a9fbe00841f78006c00070098
:100f00004f00780011003300f0ff2f00838f6c003a
:100f100006003b00040565000a00a7000800370032
:100f200009f0a6001000200008003700820f5400ce
:100f3000838f5c00030039001000200001003e0098
:100f40000000200009f0a7000000ea004f05be00e5
:100f50004f04be000000e00000000600889fbe00b5
:100f60008a9fbe000082700004027100048271003a
:100f7000260032000004be000200be006011b8006e
:100f80006b092000950220000182cf000a00390081
:100f90000541b1000082cf00070039000541b100d2
:100fa0000982cf00040039000541b1000882cf005a
:100fb000010039000541b100054252001200320023
:100fc0000a003b0082817100610164008100d10050
:100fd0000080d3008984d3000884d3008b05e80007
:100fe0000442e800f7ff3a00070037000804440015
:100ff00089844c0000004800818048008b05e9008e
:101000000442e900f9ff3a00030007004f05be0063
:101010004f04be00000006008100200061805500e2
:101020000b003d000b00200061fe2f000100e100dd
:101030001d00340082817100610164008904d100c7
:101040000884d3000000e800faff3a007100200095
:1010500061006400030070000200600009003200bb
:1010600061044400e0844c000988a50005003200ba
:101070008b05e8006808e10002003a008904d1000d
:101080000884d300f20f20000258e10005003d0063
:10109000c75ddd00f907b20089807500080078009f
:1010a000000006000bf827008b0078000000050008
:1010b0000004be00060007000003be000405be00d9
:1010c0000200be0002000700844f75000000060009
:1010d000c70ade00f107b200f50fb20008003200c7
:1010e000e1cf4200020032000170a00024000500a0
:1010f000810f700001003200040805004400050063
:10110000810f700002003a00140005008502e9001a
:101110000000400081c04800fcff3b000170a000bf
:10112000240005000000fa0068815700cfb897003e
:101130006080800010007800df0207000080fa0065
:101140000000060009000700060337000000060043
:101150002001210000000600fdff070080808800bc
:101160007080880000000600000006002f04b00018
:10117000889fbe008a9fbe008c9fbe008e1f780095
:10118000b09f9f00a1a79f00a37f9f001100780040
:10119000d0a79f0091009000f1a79f00afa19700fa
:1011a000a3019000c3a79f002fa2970044029000c4
:1011b000a49f9f00afa2970035079000120478000b
:1011c0009204900022059000b20590006022b800c1
:1011d0006033b8000800be000a01be00ca0607005e
:1011e0000000e00003003d000bf0a200d0c2b300fd
:1011f000040037005fa397000628a3000800320010
:10120000b0c2b300004f7800cfa397008703e90076
:1012100087af9f0010002000e0a79f000f0037005d
:10122000dfa097000138a3000800320000c2b3001d
:10123000004f78004fa197000201e90082af9f00a4
:1012400013002000e3a79f00040037004fa297007f
:1012500084af9f008002eb00e5a79f000800be005e
:101260000a01be00c0ff0700f4ff2f00f5ff2f00aa
:10127000f6ff2f00f7ff2700040260008582600060
:1012800006036100878361006000b800020020004f
:1012900003ff27000020e10001a8e10002b0e10007
:1012a00003b8e10010003a002f7b97008600fb0096
:1012b0001104b100efa3970007004700f98f500019
:1012c00002003e00c1082100010037000109210091
:1012d000a705070000092100ac050700efa0970053
:1012e00001014000140037000020e10001a8e100e6
:1012f00002b0e10003b8e100120036002f79970038
:101300008200fb001104b100efa197000300470029
:10131000f98f500002003e00410921000100370012
:101320008109210092050700800921009705070027
:101330006fa29700040140005fa29700cfa1970021
:10134000490237006022b8006033b8000800be00d0
:101350000a01be006c0607000000e00068003200d1
:101360006000b8000200200003ff2300d0af9f0000
:10137000e1af9f00f2af9f0083b79f008006eb00b4
:101380000802be000a03be0094b79f00a5b79f00e5
:10139000b6b79f00c7b79f00070037008d06e8006b
:1013a0000800be000a01be00d0af9f00e1af9f0061
:1013b000f2af9f0083b79f006022b80006002000b4
:1013c000470224005fa89700efa897007fa9970025
:1013d0008fb19700a70707000004be000205be00fa
:1013e0000002be000203be001fb09700afb097001e
:1013f0003fb19700cfb19700430607000000e0001f
:10140000e6ff3d000006eb005fac9700efac9700f5
:101410007fad97008fb597002500370040ed2f0076
:10142000808f560019003d000c00e00016003a00c5
:101430006022b80006002000073524001fb0970086
:10144000afb097003fb19700cfb197008907070071
:101450000002be000203be0094b79f00a5b79f0024
:10146000b6b79f00c7b79f006022b80006002000f3
:10147000073524000800be000a01be007d070700f2
:101480000004be000205be001c0020006022b8005f
:1014900006002000470224000800be000a01be002a
:1014a000c50607000004be000205be008d06e90067
:1014b0000802be000a03be001fb09700afb097003d
:1014c0003fb19700cfb197000f0607000000e00082
:1014d000d2ff35000800be000a01be00d0af9f0059
:1014e000e1af9f00f2af9f0083b79f001fb497004a
:1014f000afb497003fb59700cfb59700080037000d
:101500006022b8000600200007ff2300d4af9f0030
:10151000e5af9f00f6af9f0087b79f008006eb0006
:10152000af7a97000500fb003a050700b07f9f00e7
:101530007fa39700600020000600e0000100350056
:101540007fa0970071c6b300bf7b970081cf530087
:101550000a003a00ffa097000100e000cb01320032
:10156000cb0137008d0f5000cf013c0090b79f009a
:1015700052c6b300e2cf9f001e003700bf7997002c
:10158000e3cf9f000200370064c6b300e4cf9f00a2
:101590000000e80090b79f0060c6b300efca970054
:1015a00080cf520013003a000d00e00008003d001b
:1015b0006000b8000200200003ff2300d0af9f00ae
:1015c000e1af9f00f2af9f0083b79f008006eb0062
:1015d00061c6b300e1cf9f0070c6b3003f799700aa
:1015e000804f5100030032009fb197008d81410070
:1015f00093b79f005faa9700efaa97007fab970071
:101600008fb39700d4b79f00e5b79f00f6b79f0050
:1016100087bf9f000800be000a01be0090af9f0078
:10162000a1af9f00b2af9f00c3af9f000006eb00c9
:101630000802be000a03be00e49f9f00f59f9f00c2
:1016400086a79f0097a79f00310037005fb29700e1
:10165000efb297007fb397008fbb97001fa897004a
:10166000afa897003fa99700cfa99700520607009f
:10167000ab0807000004be000205be00cb05070052
:1016800080027800b5a79f005fb29700efb2970085
:101690007fb397008fbb97000800be000a01be0011
:1016a000f40607001faa9700afaa97003fab970068
:1016b000cfab9700ef0507000002be000203be009b
:1016c00007f0a20094af9f00a5af9f00b6af9f00a8
:1016d000c7af9f006022b800060020004702240028
:1016e0005fb09700efb097007fb197008fb9970078
:1016f000310607000002be000203be00d4b79f00ff
:10170000e5b79f00f6b79f0087bf9f000c06e80073
:101710009fb29700850f5600ccff35006f9c970055
:10172000ff9c97000fa597009fa597006022b80027
:1017300006002000470124005fb09700efb097003b
:101740007fb197008fb99700ca0607000002be005c
:101750000203be00d4b79f00e5b79f00f6b79f0015
:1017600087bf9f001fa89700afa897003fa99700c9
:10177000cfa99700640507000000e0000f003500c6
:101780005fb29700efb297007fb397008fbb9700cf
:101790001fa89700afa897003fa99700cfa997006f
:1017a000590507000000e00011003a00bfa29700b1
:1017b0000508a300080032000d0037006000b800e3
:1017c0006011b800d0b79f00e1b79f00f2b79f004b
:1017d00083bf9f00060037006022b8006033b80066
:1017e000d4b79f00e5b79f00f6b79f0087bf9f0063
:1017f0005fb29700efb297007fb397008fbb97005f
:101800000800be000a01be00a00507000002be00dd
:101810000203be0094af9f00a5af9f00b6af9f002c
:10182000c7af9f006022b8000600200047022400d6
:101830005fa89700efa897007fa997008fb1970046
:101840008c0607000004be000205be000002be00b8
:101850000203be001fa89700afa897003fa99700fa
:10186000cfa997002d0507000000e0000900350012
:101870008d06e80060c6b300efca970080cf520023
:1018800008003a001fb397000603e80096b79f00d0
:10189000110037005fac9700efac97007fad970069
:1018a0008fb5970050c6b3006fc99700804f5100a5
:1018b00009003a000802be000a03be00d4b79f0028
:1018c000e5b79f00f6b79f0087bf9f008002eb003f
:1018d000d5af9f00070037000800be000a01be0018
:1018e000d0b79f00e1b79f00f2b79f0083bf9f0072
:1018f000ddaf9f006fa697000001eb00b2a79f002d
:10190000c29f9f00e29f9f009d9f9f00680037003d
:101910005fb29700efb297007fb397008fbb97003d
:101920001fa89700afa897003fa99700cfa99700dd
:10193000a1050700fa0707000004be000205be006b
:101940001a050700e90f5000010034009000200044
:10195000dfa197000348a3000c003a000000e0005c
:101960000a003a0071c6b3003f7a9700814f5200d7
:1019700006003a00dfaa97000500e00003003d00e2
:101980003fa397008606e80021003700cf9b970011
:101990000700e0000c003a00dfa897000100e0001b
:1019a00009003d000c014700e1c2b3000149780085
:1019b0000c06e8000fa997000201e90082af9f0022
:1019c00013002000c39f9f000c014700bfa6970093
:1019d0000300370001c3b300015978008d06e90008
:1019e0000d00e000fbff3a003fa29700040646000e
:1019f0008c00470005c3b300854840000c06e80092
:101a00000480ea000fab97000003430086af9f00fd
:101a10005fb29700efb297007fb397008fbb97003c
:101a20000800be000a01be00120607001faa9700a8
:101a3000afaa97003fab9700cfab97000d0507000b
:101a40000002be000203be0007f0a20094af9f0098
:101a5000a5af9f00b6af9f00c7af9f006022b80040
:101a600006002000470224005fb09700efb0970007
:101a70007fb197008fb997004f0507000002be00a5
:101a80000203be00d4b79f00e5b79f00f6b79f00e2
:101a900087bf9f00dfaa97008502e900d5af9f00ae
:101aa0006f9b97000603e800e69f9f00bda79f007d
:101ab000ef9b97001fb09700808f530005003d00fb
:101ac000afa097004100900065005000800f5600c5
:101ad0008fff39009f9e97004f9997000200e0000a
:101ae00007003a00dfa197000348a300040032007a
:101af0000c004700e1c2b300014878000c06e80082
:101b00000c0047000048eb0051c6b3006fca9700b5
:101b1000814f520036003a00af9a97008500e900e5
:101b2000010147000049eb008001eb000d00e000df
:101b300002003d008d06ea00130020002200200074
:101b4000810378008faa9700000478000b0037000b
:101b50008103780007034700a4002000110009005a
:101b60008406d800010278008006780000c3b30024
:101b7000004b42000201e9008502e9008700e9000c
:101b80000d00e000f2ff3a000200e000f0ff3c0030
:101b900085af9f000800780001024700b2c2b30081
:101ba0000300e00001003200d2c2b300024a780014
:101bb0000101e90082004700af7997000302fb00b2
:101bc0001404b10053c6b300f90f520001003e00e7
:101bd00053c4b300834878000faa97000482e90039
:101be00084af9f00820f560001003d006003070094
:101bf000dfa2970063806200e20f500015003a00f8
:101c00000fab97000600e000120034000e007800d1
:101c10005e030700060037008fab97008700470080
:101c20008080400000014700924878000000e900f1
:101c3000efa09700810f5000f7ff3d000100470023
:101c40000fa9970001032000e50207000001eb0047
:101c5000c2a79f000e0078004c0307005fa2970008
:101c6000cfa19700000178008e0078003f98970080
:101c7000710007004f0778004f06be004f05be00f9
:101c80004f04be002f04b100000006001000200029
:101c9000e48f460033fe3d0090b79f0053c6b3006b
:101ca000e3cf9f0053fe37000d00e00036fe350005
:101cb00090b79f0046fe37000200fa00881f7800a8
:101cc00000047800e2bf9f0064815700080078009c
:101cd0001b020700980090000148a3000100320099
:101ce0000080eb004f0478000080fa00000006003e
:101cf000889fbe00000478004800900082047800ad
:101d0000808f5400010036008004780009017800bb
:101d100058009000ab0207005800900009004000f6
:101d200050049800c800900089845000490498002d
:101d30000048eb004f04be000000060010007800d1
:101d4000d3fa3700900190000388a300010032000d
:101d5000e7ff37000348a30001003a00f7ff070040
:101d600000000600881f78000004780000082000aa
:101d7000808f50001a00350010082000808f50001e
:101d80000d00340030082000808f500014003a000d
:101d900092007800688050000009780010027800f6
:101da0009002900020039000b0039000049cbe00bd
:101db0000694be000800370092027800648052004a
:101dc000000978009000900010007800d803070008
:101dd000009cbe000294be001000200001003700ed
:101de0000000eb004f04780000000600889fbe0052
:101df000000478004800900082047800808f54002e
:101e00000100360080047800090178005800900035
:101e10006c02070058009000090040005004980030
:101e2000c800900089845000490498000048eb00e5
:101e30004f04be0000000600f2874700889fbe00e6
:101e40008a9fbe008c9fbe008e1f780080047800a1
:101e500001057800020478008305780061076200bc
:101e600002003a008b0f5400080039000801780086
:101e70008a00780009007800b2ff07008b0f540039
:101e800002003900880578001e00370008865500da
:101e90000c017800f00f560001003600020120000e
:101ea000010220007e8057004d0207008c0678005a
:101eb0000500370002012000fe805700090078006d
:101ec000a0ff0700f0865600ef8f5600f9ff3e0096
:101ed0004461de0000ff2f008091b9000c01410039
:101ee000fe8057000900780096ff07000e00e00012
:101ef00004003a00080178008a00780009007800a0
:101f000090ff07000b0078004f0778004f06be00d7
:101f10004f05be004f04be002f01b10000000600b7
:101f20000000050000000500000005000001780029
:101f30000040eb008080fb008180400063072100af
:101f400081814100134278000404e00004003a005b
:101f50007007210081004000114078000000060059
:101f600092017800934f520005003a00700721005b
:101f700081004000114078000309e80001003700ab
:101f80000040e800ea4f5000eaff3600000006007b
:101f9000f6874700889fbe008a9fbe008c9fbe00c8
:101fa0008e1f780000057800010478008305780012
:101fb000040678000000eb00c0b79f008080eb00b3
:101fc000d1b79f00e0b79f00f2b79f000008200044
:101fd00080bf9f0098007800010078008004eb002b
:101fe000010037008904e800304178000204e00075
:101ff0000300320053c2b300834f5100f9ff3a008f
:102000000900e00004003200090178000a007800ad
:102010004cff0700188c44001807780050c2b3002a
:102020009e4f10003f013a000e07e8000e0c7800aa
:1020300010003700cfb097000100a0000b00370060
:10204000cfb097000110a00008003700cfb0970074
:102050000120a00005003700cfb097000130a0009c
:1020600002003700cfb097000140a000c1b79f0029
:10207000000ce8001800780090407800b2c2b3006d
:1020800082cf5000f1ff320007003c0002c2b300d3
:1020900082cf5000f0ff320032c2b30082cf500036
:1020a00007003a00efff3700d2c2b30082cf5000e2
:1020b000e0ff320002c3b30082cf5000e0ff3200e5
:1020c000a2c2b30082cf50000d003a00000ce8001d
:1020d0001c80e900000e780010007800e0b79f0037
:1020e0000000e0000f003d00cfb097000100a2000b
:1020f000c1b79f000000ea00e0b79f000900370069
:1021000084010700e0b79f0001003700000ce800e1
:10211000180078009000fb000103b100e98f500027
:10212000faff36004fb097000008a300020032000b
:102130000010a100c0b79f0018007800e1c2b300f2
:1021400090cf100016003a008000eb00d1b79f003e
:102150000000e800000c7800a1c2b30090cf10008e
:1021600006003a00000ce8001c80e900000e780030
:1021700010007800d0b79f00090037006501070004
:10218000d0b79f0001003700000ce800180078006d
:102190009000fb000103b100e98f5000faff360008
:1021a0000800780061ff070080467800180078007a
:1021b0001000fb001702070091062000810f50005d
:1021c0003800320012003c0041062000810f500010
:1021d000340032000a003c0011062000810f50003c
:1021e0002000320031062000810f5000a000320094
:1021f00051022000810f5000bc003a00b4003700ab
:1022000071062000810f5000b8003c0088003700a4
:1022100001072000810f50005c00320007003c00e5
:10222000e1062000810f50007a003200f106200004
:10223000810f5000ad003a003900370051072000ef
:10224000810f50002700320081072000810f5000cd
:102250004200320031072000810f5000a3003a00f5
:102260008f0037008d80fb000c01780000fe2f00ee
:102270000f004000bbfe07000000e000a800320095
:1022800018007800000ce8009041780002fe2f0052
:102290000f014100f88057000a00780021ff070075
:1022a0000e0037008d80fb008c01780012002000aa
:1022b00000fe2f000f004000e10107000000e000d9
:1022c00097003200180ce80002fe2f000f014100b9
:1022d000f88057000a00780011ff0700808444004e
:1022e000900037008d80fb008c0178000001eb002e
:1022f00000fe2f000f004000d10107000000e000a9
:1023000087003200180ce80002fe2f000f01410088
:10231000f88057000a00780001ff0700efff370040
:102320008d80fb008c0178000001eb0000fe2f0087
:102330000f004000c20107000000e00078003200fa
:10234000180ce80002fe2f000f014100f880570032
:102350000a007800f2fe0700e0ff37008d80fb00e6
:102360008c0178000001eb0000fe2f000f00400000
:10237000b30107000000e000690032001800780097
:10238000000ce800904178001c0037008c017800b8
:102390000001eb00010f200000fe2f000f004000a5
:1023a000a70107000000e0005d003200180ce80003
:1023b0000fb097009fb097002fb19700bfb1970063
:1023c000e00f5000e08f5800e00f5900e08f5900f7
:1023d00009003a00cfb597006fb49700e0062100de
:1023e0006a0107000b02780088017800000178007c
:1023f000e10621004700370083c7b30002fe2f002b
:102400000f014100f88057000a007800c5fe070060
:10241000b2ff37000b8144008d80fb008c017800f7
:1024200000fe2f000f004000dd0107003c003700d8
:102430008d80fb000c01780000fe2f000f00400093
:1024400048fe07000000e000350032001800780068
:10245000000ce8009041780002fe2f000f014100bf
:10246000f88057000a00780040fb07009bff370008
:1024700000c8b30080cf560029003a00180ce800cd
:102480001c80e900000e780010407800e0df9f001b
:1024900013002000e2fd2f000f014100080037006b
:1024a00000c8b30080cf56001d003a00180ce800a9
:1024b0001c80e900000e78008001eb00100178001c
:1024c000f88057000a00780097fe070083ff370066
:1024d00000c8b30080cf560011003a00180ce80085
:1024e0004fb29700efb19700080037000e0c78004c
:1024f0000000eb00c0b79f00e0b79f000080eb003a
:10250000d0b79f000002eb00840178001200200089
:10251000410721000a00780047fe07006fff3700df
:10252000180ce800090078004f0778004f06be003d
:102530004f05be004f04be006f01b1000000060051
:102540008200fa00889fbe008a1f7800000578008c
:1025500082047800c13f9f000004eb0010003700a8
:102560000902780088017800a2f72f000f014100ce
:1025700081f72f008f8040000a00780084fe07005a
:1025800008004000880f500004003d00b004200007
:10259000f08488000084eb00040037000004780019
:1025a0004f3897001004e000edff3a000800780073
:1025b0004f0578004f04be000080fa0000000600be
:1025c000889fbe000004be000000eb000800e00091
:1025d00018003200180090000058a3000d003200cf
:1025e000d800900068009000808f500009003600ed
:1025f000b80990000001eb00820078000800780024
:1026000003000100d80090000080eb000100e00012
:10261000080032000000eb00200c980060049800d5
:10262000500498000900e000020032001800780011
:102630008ef807004f04be0000000600889fbe0011
:102640000004be000000eb000800e000250032009e
:10265000180090000058a30011003200d80090002c
:1026600068009000808f500009003600b809900083
:102670000001eb00820078000800780003000100f0
:10268000d80090000080eb000100e000150032004f
:102690000000eb00200c98006004980050049800a3
:1026a000780a900008109000800f52000600310058
:1026b0000002520011002000cfa2de00612bb90001
:1026c00018007800390007000000eb0000149800a3
:1026d000700c98000900e000020032001800780039
:1026e00062f807004f04be0000000600800078007a
:1026f0001000200002022000828f500004003200ef
:10270000e9805000e48f5000010036000000eb002b
:1027100000000600889fbe008a1f78000005780030
:102720000a047800984478000805e8000900fb00d6
:10273000eeff07000000e000f9ff3a00b0c2b3006e
:1027400080cf540005003200d0c2b3008000eb00ff
:1027500080cf540005003a00020037008000eb00f3
:1027600001003700110020000804e8000000eb0021
:1027700003003700ea00b900020050000003b00077
:102780003801fb0003fd2f0082814100e98f5100d9
:10279000f8ff36000100e00001003a000000ea0006
:1027a0004f0578004f04be0000000600a0fd2f007a
:1027b000f1ff2f008d0007004f89de0082017800b5
:1027c000000006008001780002003700b15978004f
:1027d0000201e9000200e000fcff3a0000000600f0
:1027e000889fbe008a9fbe00800478000200e0003f
:1027f0005b00320001407800814c78008281440007
:10280000f1f99f00e20f5100550036009144980005
:10281000a1449800e1f99f00d1f99f00e60f510013
:102820004f003600b1449800c1f99f00e80f5100f5
:102830004b0036000905ea00630565000a84440080
:102840000a055100c1ff2f00010565000080fb0053
:102850008000eb0012102000131020007f01070001
:10286000008cbe000a01440060b99f0071b99f004e
:10287000e80f55003a003600200498003104980013
:10288000400498005104980020b99f0031b99f007e
:1028900040b99f0051b99f00f80f55003000360035
:1028a0006004980071049800000c9800110c9800c6
:1028b000200c9800310c9800400c9800510c9800a6
:1028c00020b19f0031b19f0040b19f0051b19f00e6
:1028d00060b19f0071b19f0000b99f0011b99f00c6
:1028e00064016400780141000204440002055500bf
:1028f0006011b8000203be000002be000403be0067
:102900006022b80000007200818072000201730032
:102910008381730010003700009cbe000294be004b
:1029200040049800510498006204980073049800d1
:10293000000c9800110c9800220c9800330c9800a1
:10294000400c9800510c9800620c9800730c980091
:102950000a02b1000802b000ff0f5500eeff3e0072
:10296000090078004f05be004f04be0000000600bd
:10297000881f78000004780008007800c000070075
:10298000080078004f0478000000060080007800fe
:10299000040037003104e00002003a00000051005a
:1029a00000000600010178000108a300f9ff3a00c9
:1029b0008101780031017800f4ef2f00020242001b
:1029c0000281ea000201620004082800040161009b
:1029d000f7ff320083007800010178003104e00045
:1029e000fdff3a00000051000000060002002f0029
:1029f000f3ff2f00820f5000838f58000400360031
:102a00000000ea00f08488000080eb008080eb008a
:102a100000000600f1fb2f0080804000f98f50007d
:102a200001003e000050a00000000600f9ff370042
:102a300000000600c8f90700fdff0700fcff370093
:102a400084082000848f50001d0032000d003c00df
:102a500014082000848f50002700320002003c0040
:102a6000040820000400370024082000848f500050
:102a70003600320044082000848f500047003a009e
:102a80003a003700040a2000848f500029003200e9
:102a900004003c0004092000848f50003f003a00ed
:102aa0002a003700020c2000828f500033003200d1
:102ab000020f2000828f500038003a002f003700ac
:102ac0009380e9000200e0000500320081097800ef
:102ad0001102fb00cfa2de00612bb9002c003700f1
:102ae00081097800114278000482fb008002eb002b
:102af0006033b8002600370013027800e40052006b
:102b00000200e0000600320081097800110278001e
:102b1000910290004fabde00860378001c00370066
:102b20008109780011027800910290006033b800aa
:102b3000170037009380e9008109780011027800be
:102b4000cfa2de00612bb90011003700930278009c
:102b5000e88052008109780011027800910290000b
:102b600021039000b1039000090037009380e90031
:102b70000200e00002003200efff37009380e9001e
:102b800081097800110278008002eb006033b80000
:102b90000498be000690be0010000500000005006d
:102ba00044082000848f50002500320008003c00bb
:102bb00014082000848f50001400320024082000e4
:102bc000848f500024003200040820000c003700dd
:102bd00004092000848f50001f00320004003c00d4
:102be00084082000848f500024003a000e00370033
:102bf000040a2000848f500011003200040c2000d1
:102c0000848f50001d003a000d0037009380e900ca
:102c1000810978009100780001087800cf91de00ea
:102c20008288be00140037009380e9008109780093
:102c30009100780001087800824878000e00370083
:102c40009380e900810978009100780001087800fc
:102c500082087800080037009380e9008109780035
:102c600091007800010878006112b900612bb90069
:102c70008498be008690be0010000500000005008c
:102c80000101780080017800008268000408a30038
:102c90000500320013003700324078008059780078
:102ca0000004e00014003200030278000208a300d0
:102cb000f9ff3a000300780001003700031878009c
:102cc00082007800b2017800f5ef2f008382420085
:102cd0000382ea00048262000508280005026200ff
:102ce000f6ff320000027800314178000258780087
:102cf0000204e000fbff3a00040078000000060038
:102d000000c0da00000006008f1fd1007a02070021
:102d10008f87e9000000e00000000600809feb00c4
:102d2000750207008f87e9000000e0000000060040
:102d300081037800e6f807000001be006000b800db
:102d40000478a30013003a006220e10015003e0061
:102d50000d0039008301d1000281d3008180d300ae
:102d60008301d1000281d3008180d3008301d1008f
:102d70000281d3008180d3000538b000c42add0071
:102d8000f300b2008381720007f0a70003f0a000f7
:102d90000000060083ff2700020020006110b90038
:102da000f9ff370003ff2700f7ff37001400fa0090
:102db000889fbe008a9fbe008c9fbe000004be009c
:102dc0000205be00680047000a90be000890be00e1
:102dd000840207000070a7000bf0a1003043200020
:102de0009e02900080825200b0fe2f000028e10079
:102df00011003d00b0fc2f000028e1001500340058
:102e00001e0990008e0890007e0090000501b00021
:102e10000201d1008180d3000080d3008502e80048
:102e2000fbff3a000b00e000a9023b00600010002d
:102e3000e0801800a6023700f0ff2f00f1ff270006
:102e40000b00e000a2023b0001002800000020006f
:102e50009f0237006000b8009d023700020ab900e7
:102e6000001bb9000200b80081004200810043004d
:102e7000000006008c9fbe008a9fbe00889fbe0097
:102e8000ca0107000bf0a200040037008c9fbe00af
:102e90008a9fbe00889fbe00c40107000c48e10065
:102ea0000b003a000c40e100020032008b010700e9
:102eb000400037008b066d003e0032000af0a10092
:102ec000f3012000f2ff2f006110b9003900370034
:102ed0000c40e100370032000940e10001003600fb
:102ee0007e0107008a856d00cf5dde000b05750051
:102ef0000006eb008804fd00890454000100320044
:102f00007d0107000a04e00011003a000800e0001b
:102f10002800320004004000858048000601490076
:102f2000878149000358a300180032008301d100b3
:102f30000281d3008180d3000080d3000c86d300af
:102f400001003900610676000804e8001800370027
:102f500004005000858058000601590087815900ff
:102f6000060031000af0a2000c06ea00600018001a
:102f7000e080180060011900e081190003003a00a8
:102f80000004eb000005eb000a0037000348a30033
:102f900007003a000c064600000048008180480007
:102fa00002014900838149000804e900f7ff370066
:102fb000af013700c90137008c9fbe008a9fbe0059
:102fc000889fbe00790107000b056d000940e100f4
:102fd0000a003a000800e000020032000c40e10064
:102fe00006003a000af0a1000c047800f30120006a
:102ff000f2ff2f006110b9009d0037000c40e10086
:103000009b0032000800e000990032000c48e1000b
:1030100002003a000004eb00030037000900e00062
:1030200004003a000c0478006000b8006011b80099
:103030008f0037000348a30006003a00000040005c
:103040008180480002014900838149000804e900a9
:10305000f8ff37000748a30006003a0004024200c8
:1030600085824a0006034b0087834b008904e900f0
:10307000f8ff3700fd3f20008d8454000904540000
:103080008a1f7800881f7800000478008104780087
:1030900002057800830578006000b8006011b80070
:1030a0000d042000050037000804440089844c000a
:1030b0000a054d008b854d000800310004045400c2
:1030c00085845c0006055d0087855d008381d200f4
:1030d0008d06d300f4ff3b000700370004044400d2
:1030e00085844c0006054d0087854d008381d20004
:1030f0008d06d300ecff3b000804440089844c009b
:103100000a054d008b854d00080031000404540071
:1031100085845c0006055d0087855d000281d20024
:103120008d06d300f4ff3b00070037000404440081
:1031300085844c0006054d0087854d000281d20034
:103140008d06d300ecff3b000804440089844c004a
:103150000a054d008b854d00080031000404540021
:1031600085845c0006055d0087855d008180d20056
:103170008d06d300f4ff3b00070037000404440031
:1031800085844c0006054d0087854d008180d20066
:103190008d06d300ecff3b000804440089844c00fa
:1031a0000a054d008b854d000800310004045400d1
:1031b00085845c0006055d0087855d000080d20087
:1031c0008d06d300f4ff3b000700370004044400e1
:1031d00085844c0006054d0087854d000080d20097
:1031e0008d06d300ecff3b000b00e00004003d0027
:1031f0000404440085844c0006054d0087854d007d
:103200000006eb008301d1000281d3008180d3004e
:103210000080d3000c86d3008301d1000281d3004b
:103220008180d3000080d3000c86d3008904740011
:103230008b0575008b8474000100320061067600f6
:103240004f0478004f0578000348a30007003a00b8
:103250000c06460000004800818048000201490039
:10326000838149000804e900f7ff370000013700b7
:103270001a0137008c9fbe008a9fbe00889fbe0047
:10328000ca0007000b056d008a0578000c40e100bc
:1032900008003a000900e00082003a000af0a100ac
:1032a0000c047800f3012000f2ff2f006110b90038
:1032b0007c0037000c48e10004003a00870007005a
:1032c0000900e00077003a00f4ff37000800e00052
:1032d000740032000900e00002003a007f0007009d
:1032e00070003700ed3f20008d8454000904440035
:1032f0008a1f7800881f7800871f7800861f780053
:10330000851f7800841f7800cb19dd00c515de000d
:103310008b8571004b11dd00450dde000a05710043
:10332000cb08dd00c504de00898470004b04dd009d
:103330000440b8000546b8008c80400060814e0013
:10334000044eb8008c8040000d0149008001eb0064
:103350000318ad000456b8000c0141008d814900ee
:103360000002eb000420ad000646b8000c0141004d
:103370008d81490060024a00054eb8000c014100f1
:103380008d81490060024a000556b8008c814100d9
:103390000d024a008002eb000528ad000746b80088
:1033a0008c8141000d024a00e0824a00064eb800be
:1033b0008c8141000d024a00e0824a004f067800ed
:1033c0000c5eb8008c8141000d024a00e0824a0088
:1033d0000656b8000c0242008d824a000003eb0042
:1033e0000630ad00074eb8000c0242008d824a0044
:1033f00060034b004f0678000c5eb8000c024200e0
:103400008d824a0060034b000756b8008c82420050
:103410000d034b008003eb000738ad004f0678002a
:103420000c5eb8008c8242000d034b00e0834b0021
:103430004f0678000c5eb8000c0343008d834b00f0
:103440004f0478004f0578000748a3000a003a00af
:10345000000040008180480002014900838149004a
:1034600004024a0085824a0006034b0087834b0012
:103470000804e900f4ff370003067800808070003c
:1034800082807000010032006106760087017800ba
:103490000601780085007800040078008804780030
:1034a000780037008d0037008c06460002003a0095
:1034b0000000a6000000060060004800e080480010
:1034c00060014900e08149000350a60000000600a9
:1034d0008301d1000804e800000006000002fd009e
:1034e0008102fd000203fd008303fd008804fd004e
:1034f0008a05fd00000006007048e1001a0039004e
:103500007d0320000d48e1000a00390081057000ac
:10351000830671008c8575008d8575000006eb00b3
:103520001cd8e700610676006000b8006011b800a2
:10353000000006007048e1000b0039008c0578009f
:10354000000678000100780082007800030178000e
:103550008001eb0013d8e70061067600f084540088
:10356000f4ff3a00000006006160e1000c48ad0085
:10357000f08514008b06dd000966de000d0676007e
:103580008b0edd000900de000d0070008b16dd00e3
:103590008908de008d8070008b1edd000911de00c1
:1035a0000d0171008919de00000006000d002800e1
:1035b000fc7f20000d856100441cde00ef8161006e
:1035c0000c046400010032000340a0008d856300fc
:1035d000c43cde00ef8363008c8464000100320091
:1035e0000740a0000c40e10006003a00ef866100b1
:1035f0008286760081867600808676000100320021
:10360000180037000c48e10007003a00ef8663001d
:1036100086867600858676008486760002003200f3
:10362000aeff07000f0037000348a30005003a0073
:103630008106700082867600838676000100320063
:103640000804e8000748a30005003a008506720058
:103650008686760087867600010032008904e800bd
:1036600000000600cf047800cf0578001b0037006b
:10367000000278008102780002037800830378005a
:10368000880478000cf0a70087ff0700fd7f20006a
:103690000d40e100040035000d0478006000b80022
:1036a0006011b8000d0037000800e0000b003c007e
:1036b0000400780085007800060178008701780012
:1036c000e18414008cff07000cf0a70076ff0700d0
:1036d0000004eb000340a7000804e8004444dd00b8
:1036e0006fc56100880175004f04be004f05be0024
:1036f0004f06be0000000600889fbe008a9fbe00e5
:103700008c9fbe000404be000605be00809fbe0064
:10371000829fbe0021000700040678000800be005a
:103720000a01be001d000700840678004f03be009a
:103730004f02be008d4f76007fb09700130033001c
:10374000f0ff2f008b8f6b0006003b000d0666001c
:103750000c00a7000a00370007f0a60010002000a8
:103760000a003700880f5200898f5a008a0f5b00c9
:103770008b8f5b00030039001000200001003e0029
:103780000000200007f0a7000000ea004f06be007e
:103790004f05be004f04be000000060005ff2700d5
:1037a00005826100070032000428e10001003200b8
:1037b000240005000600070001003a00440005004f
:1037c0000408050002000700f9ff3a001400050094
:1037d0006f826100810270008502710085027200b3
:1037e000000006005002be00e40050005003be007e
:1037f0004439de00f700b200f37f200003016100ce
:10380000090032000218e10016003a00850172003a
:1038100083017300838173000008200015003a00c3
:1038200040002000130037008501720083017300ff
:103830008381730005003a0004a8be0006a8be00fc
:10384000100020000b0037000201e90004024200d2
:1038500085824a0006034b0087834b000748a3007c
:10386000f9ff32000740a00004a8be0006a8be0071
:1038700020002000800098009200980000000600c0
:10388000680447000294be000094be00fc04470098
:103890008694be008494be0009007800d1ff070022
:1038a00008007800cfff070099007800814f700072
:1038b0000b003b000800be000a0007004f00b100eb
:1038c00003003700f3ff2700f2ff2f006110b9005b
:1038d0004f06be004f05be004f04be000080fa0038
:1038e00000000600e48240001078a30007003200c8
:1038f000640240001178a3003400be001401be0031
:10390000050032000330a7000000060035007800f3
:10391000b50078001501be000330a00000000600cd
:103920001800fa00889fbe008a9fbe008c1f780096
:103930000004be000205be000802be000a03be006d
:10394000443ade00f07f20000006620020432000a1
:10395000800f560067003c006022b8006033b8005a
:103960000800be00e8fc07000000e0006100320033
:103970000802be000a03be00b4b79f00c5b79f008f
:10398000d6b79f00e7b79f00e00f5200e08f5a00c4
:10399000e00f5b00e08f5b000b003d006022b80091
:1039a00006002000073324000800be000a01be0004
:1039b00030fd07006022b800060020000733240015
:1039c00032fd07000a0037006022b8000600200020
:1039d000073324000800be000a01be002bfd0700cb
:1039e0006022b800060020000733240021fd0700f4
:1039f0000802be000a03be001efd07000002be0052
:103a00000203be00f4b79f0085bf9f0096bf9f00d2
:103a1000a7bf9f00e03f2000800f560017003c002a
:103a20007fb097008fb897001fb99700afb9970084
:103a3000f0af9f0081b79f0092b79f00a3b79f0090
:103a40006044b8006055b8003fb29700cfb297000d
:103a50005fb39700efb39700e00f5200e08f5a007a
:103a6000e00f5b00e08f5b0022003d006044b80087
:103a70000a0020000bff2b001e0037006022b80058
:103a80006033b8007fb097008fb897001fb99700d8
:103a9000afb99700a1fc07000000e0000c00340063
:103aa0007fb297008fba97001fbb9700afbb9700fc
:103ab0000800be000a01be00f4fc07006022b80046
:103ac0000600200007ff2300eafc0700070037007c
:103ad0007fb297008fba97001fbb9700afbb9700cc
:103ae0000800be000a01be00e8fc07000004be009a
:103af0000205be000800be000a01be004f067800a5
:103b00004f05be004f04be000080fa000000060012
:020000040000fa
:103b100050650000726900006f6400003a200000e8
:103b2000252e00003466000020730000207c000079
:103b300020520000504d00003a200000252e0000c9
:103b4000326600000d0a0000207c000020560000b4
:103b5000656c00006f63000069740000792000004c
:103b60006d2f0000732000003a200000252e000079
:0c3b7000326600000d0a0000000000009a
:020000040000fa
:103b7c000000fa00003a80000080fa000000060005
:103b8c000200fa00faff0700000f78001e00780010
:103b9c00240007000004e0000200320000002800ae
:103bac00710007001e0078002a0007000004e000e6
:103bbc0002003200000024006b0007001e00780099
:103bcc00320007000004e000020032000020200058
:103bdc00650007001e0078003a0007000004e000b2
:103bec0002003200000820005f0007001e00780071
:103bfc00420007000004e000020032000004200034
:103c0c00590007001e0078004a0007000004e0007d
:103c1c000200320000012000530007000080fa006f
:103c2c00000006000400fa00100798000040eb00aa
:103c3c00004f78001e0090000000e00002003d00e4
:103c4c0010c0b300004f78001e4078000080fa00ce
:103c5c00000006000400fa00100798000040eb007a
:103c6c00004f78009e00900000002400008060004f
:103c7c000000e0000200320010c0b300004f7800da
:103c8c001e4078000080fa00000006000400fa00d4
:103c9c00100798000040eb00004f78009e00900049
:103cac0000202000008060000000e00002003200d4
:103cbc0010c0b300004f78001e4078000080fa005e
:103ccc00000006000400fa00100798000040eb000a
:103cdc00004f78009e0090000008200000806000db
:103cec000000e0000200320010c0b300004f78006a
:103cfc001e4078000080fa00000006000400fa0064
:103d0c00100798000040eb00004f78009e009000d8
:103d1c0000042000008060000000e000020032007f
:103d2c0010c0b300004f78001e4078000080fa00ed
:103d3c00000006000400fa00100798000040eb0099
:103d4c00004f78001e009000700060000000e00042
:103d5c000200320010c0b300004f78001e40780003
:103d6c000080fa00000006000200fa00000f780044
:103d7c009e80ea00003a800000806000003a8800d3
:103d8c000080fa00000006000000fa004027ef0057
:103d9c000080fa00000006000600fa0020079800d8
:103dac000000eb00000f78000c0037000000eb0067
:103dbc001007980004003700000000001e0090005f
:103dcc000000e800100798009e009000b01c200036
:103ddc00808f5000f8ff36001e0fe8002e00900078
:103dec009e007800808f5000f0ff39000080fa00b0
:103dfc00000006001200fa00881f7800000f9800df
:103e0c006000b800008fbe006000b800200798006a
:103e1c00310798006000b8004007980051079800df
:103e2c00408080008000eb00c001dd00020020001b
:103e3c000e0890008000eb000200400083804800d8
:103e4c0060079800710798006e009000fe009000cb
:103e5c00a3f2070002a22e0003862400a2f20700a0
:103e6c00008fbe0018c0b3006011b8001e007800af
:103e7c009e00900098f207000000e00001003c005a
:103e8c000044eb000804e000060032001e0178003c
:103e9c009e019000000020000127240092f20700f0
:103eac00010037006000b800200798003107980027
:103ebc0090be2e0031af23004007980051079800a8
:103ecc004e009000de009000809fbe002e009000ff
:103edc00be009000809fbe001e0078009e009000e7
:103eec00809fbe0080d82900801f78008af40700cc
:103efc00ee8757004f0478000080fa00000006009f
:103f0c000000fa00408080000000e800408088003b
:103f1c000080fa00000006000400fa007901070096
:103f2c007f00070060f82100ac000700b300070019
:103f3c000040eb00004f78009170800000002800da
:103f4c00008060000000e00015003a0014cea800cc
:103f5c00b20007001e4078000004a2000004e0003c
:103f6c000800320096000700100798009e00900091
:103f7c00f0702200808f500002003e001e00900066
:103f8c009cff07000000eb00840007000830ef00e6
:103f9c009a00070010c0b300004f7800e6ff37000e
:103fac0014cea9000040eb00004f7800e2ff370070
:103fbc000000fa0080002000001188002222ef008f
:103fcc00f00220004011880021e2a8002342a80042
:103fdc000080fa00000006000000fa00000000005b
:103fec0010118000610060000000e000fcff320056
:103ffc0010118000620060000000e000010032003f
:10400c002222a90030118000004078000080fa00c4
:10401c00000006000200fa00004f780000000000cb
:10402c001111800000202000008060000000e000e2
:10403c00fbff3a001e80fb00201188000080fa0074
:10404c00000006000000fa0010118000004078000b
:10405c00614060000080fb0000f0a7000000ea0057
:10406c000000ea004f00de00004078000080fa00fb
:10407c00000006000000fa00111180000020200052
:10408c00008060000000e00007003a001111800081
:10409c0000402000008060000000e00002003200c0
:1040ac0010002000010037000000eb0000407800f9
:1040bc000080fa00000006000000fa0010118000d9
:1040cc004800de00614060000080fb0000f0a700ab
:1040dc000000ea000000ea004f00de00004078001b
:1040ec000080fa00000006000000fa0010118000a9
:1040fc000080fa00000006000000fa0021e2a8008f
:10410c002342a8000080fa00000006000000fa001c
:10411c0021e2a9002342a9000080fa000000060059
:10412c000000fa000021ef0000f82f0010088800b2
:10413c004001280020088800308080000000e0004a
:10414c0002003a00e00e2200240007000068a900db
:10415c002068a800c00921008040eb0001487800cd
:10416c000080fa00000006000200fa00000f780040
:10417c009e00780011088800c00921008040eb00e7
:10418c00014878000080fa00000006000000fa00e8
:10419c00100880000080fa00000006000200fa00ff
:1041ac00000f78009e00780001088800c0092100eb
:1041bc008040eb00014878000080fa000000060007
:1041cc000000fa00000880000080fa0000000600e1
:1041dc000000fa000080fa00000006000200fa005d
:1041ec00000f78002068a9009e00780031808800bc
:1041fc002068a8000080fa00000006000000fa0009
:10420c00c00921008040eb00014878002068a8001c
:10421c0005e1a8000080fa00000006000000fa008a
:10422c0005e1a9002068a9000080fa000000060042
:10423c000200fa00c0092100104f78001e407800df
:10424c000004e00003003200c00921008040eb00b4
:10425c00014878001e4078000080fa00000006003b
:10426c000000fa00d0092100104078000080fb000b
:10427c000080fa00000006000000fa00d0092100be
:10428c008040eb00014878000080fa000000060036
:020000040000fa
:10429c004e10000020000000800000000410000000
:1042ac000200000082000000ffff00000010000070
:1042bc0004000000800000009c10000002000000c0
:1042cc0080000000061000000200000080000000ca
:1042dc000810000002000000800000000a1000001e
:1042ec0002000000800000000c10000042000000e2
:1042fc0082000000101012001012100001000300c8
:10430c0000000000000000000000000000001e0083
:10431c001300000000000000009e0e00a608000024
:10432c000000000000000000000000000000000081
:10433c000000000000000000000000000000000071
:10434c000000000000000000000000008c100000c5
:10435c001000000082000000494e460000696e000b
:10436c0066004e00414e00006e616e0000000000c1
:10437c006e1000001e00000082000000286e690014
:10438c006c29000025006800076c09004c836a004a
:10439c009074a0007ac000008068880000846c00d3
:1043ac00820081009e1000000200000080000000ce
:0443bc0000000000fd
:020000040000fa
:1043c0000000fa00042eef00142eef007001200010
:1043d00000708800f0bb2f00807088000c2eef006a
:1043e0001c2eef000a2eef001a2eef00062eef0013
:1043f000162eef0030012000707088001e2eef0096
:10440000113a8000f00b2000008160006004200061
:1044100071052000237420008049780081497800cc
:10442000824978002136800000f82f0080806000eb
:10443000b002200001007000203688004134800066
:1044400000fc2f00008060000000a00040348800c5
:10445000103a8000000178000260a0006004200093
:10446000710520002374200080497800814978007c
:10447000824978000080fa00000006000000fa007f
:1044800000142300203a88004827ef004e27ef0051
:1044900020032000303a88006027ef006227ef00f9
:1044a0006427ef006627ef006c27ef007200200002
:1044b00080072000a1092000337420008049780083
:1044c00081497800824978000001eb0060042000f7
:1044d000710520002374200080497800814978000c
:1044e000824978000080fa00000006000200fa000d
:1044f000000f780021028000200f20000080600063
:104500001e007000200288000080fa0000000600f3
:104510000000fa00aaff0700d8ff070014000700f8
:10452000a6fe070001ff070000022000efff0700c2
:104530000080fa00000006000200fa00000f780078
:104540009e007800218088000000fe000080fa00b4
:10455000000006000000fa00e00421008007780057
:1045600060062100000188000080fa0000000600bb
:104570000000fa0001428000f0ff28000080600087
:1045800000c0a000004288000080fa000000060081
:10459000809fbe00ec8057003100780000808800ca
:1045a0001100780002f0b7004f00be0000000600c6
:020000040000fa
:020000040002f8
:04afe000cfff00009f
:020000040000fa
:020000040002f8
:04afe400cfff00009b
:020000040000fa
:020000040002f8
:04afe8007fff0000e7
:020000040000fa
:020000040002f8
:04afec00bfff0000a3
:020000040000fa
:020000040002f8
:04aff0007fff0000df
:020000040000fa
:020000040002f8
:04aff400ffffff005c
:00000001FF
